{
  "_format": "hh3-artifact-1",
  "contractName": "OpenExecutor",
  "sourceName": "contracts/contracts/workers/OpenExecutor.sol",
  "abi": [
    {
      "inputs": [
        {
          "internalType": "address",
          "name": "initialOwner",
          "type": "address"
        },
        {
          "internalType": "address",
          "name": "sharedPriceFeed",
          "type": "address"
        }
      ],
      "stateMutability": "nonpayable",
      "type": "constructor"
    },
    {
      "inputs": [],
      "name": "DuplicateLzReceiveOption",
      "type": "error"
    },
    {
      "inputs": [],
      "name": "Executor_InvalidLzReceiveOption",
      "type": "error"
    },
    {
      "inputs": [
        {
          "internalType": "uint16",
          "name": "bps",
          "type": "uint16"
        }
      ],
      "name": "InvalidBps",
      "type": "error"
    },
    {
      "inputs": [
        {
          "internalType": "uint256",
          "name": "gasUnits",
          "type": "uint256"
        }
      ],
      "name": "InvalidDstGasPrice",
      "type": "error"
    },
    {
      "inputs": [
        {
          "internalType": "uint256",
          "name": "gasLimit",
          "type": "uint256"
        },
        {
          "internalType": "uint256",
          "name": "minGas",
          "type": "uint256"
        },
        {
          "internalType": "uint256",
          "name": "maxGas",
          "type": "uint256"
        }
      ],
      "name": "InvalidGas",
      "type": "error"
    },
    {
      "inputs": [],
      "name": "InvalidOptions",
      "type": "error"
    },
    {
      "inputs": [
        {
          "internalType": "address",
          "name": "priceFeed",
          "type": "address"
        }
      ],
      "name": "InvalidPriceFeed",
      "type": "error"
    },
    {
      "inputs": [
        {
          "internalType": "uint256",
          "name": "size",
          "type": "uint256"
        },
        {
          "internalType": "uint256",
          "name": "maxSize",
          "type": "uint256"
        }
      ],
      "name": "MessageTooLarge",
      "type": "error"
    },
    {
      "inputs": [],
      "name": "MissingLzReceiveOption",
      "type": "error"
    },
    {
      "inputs": [
        {
          "internalType": "uint128",
          "name": "value",
          "type": "uint128"
        }
      ],
      "name": "NonZeroLzReceiveValue",
      "type": "error"
    },
    {
      "inputs": [
        {
          "internalType": "address",
          "name": "owner",
          "type": "address"
        }
      ],
      "name": "OwnableInvalidOwner",
      "type": "error"
    },
    {
      "inputs": [
        {
          "internalType": "address",
          "name": "account",
          "type": "address"
        }
      ],
      "name": "OwnableUnauthorizedAccount",
      "type": "error"
    },
    {
      "inputs": [
        {
          "internalType": "uint32",
          "name": "dstEid",
          "type": "uint32"
        },
        {
          "internalType": "address",
          "name": "sender",
          "type": "address"
        }
      ],
      "name": "PathwayDisabled",
      "type": "error"
    },
    {
      "inputs": [],
      "name": "Paused",
      "type": "error"
    },
    {
      "inputs": [
        {
          "internalType": "uint32",
          "name": "dstEid",
          "type": "uint32"
        },
        {
          "internalType": "uint256",
          "name": "updatedAt",
          "type": "uint256"
        },
        {
          "internalType": "uint256",
          "name": "staleAfter",
          "type": "uint256"
        }
      ],
      "name": "PriceSnapshotStale",
      "type": "error"
    },
    {
      "inputs": [
        {
          "internalType": "address",
          "name": "sendLib",
          "type": "address"
        }
      ],
      "name": "UnauthorizedSendLib",
      "type": "error"
    },
    {
      "inputs": [
        {
          "internalType": "uint8",
          "name": "workerId",
          "type": "uint8"
        },
        {
          "internalType": "uint8",
          "name": "optionType",
          "type": "uint8"
        }
      ],
      "name": "UnsupportedOption",
      "type": "error"
    },
    {
      "anonymous": false,
      "inputs": [
        {
          "indexed": true,
          "internalType": "address",
          "name": "sendLib",
          "type": "address"
        },
        {
          "indexed": false,
          "internalType": "bool",
          "name": "allowed",
          "type": "bool"
        }
      ],
      "name": "AllowedSendLibSet",
      "type": "event"
    },
    {
      "anonymous": false,
      "inputs": [
        {
          "indexed": true,
          "internalType": "uint32",
          "name": "dstEid",
          "type": "uint32"
        },
        {
          "indexed": true,
          "internalType": "address",
          "name": "sender",
          "type": "address"
        },
        {
          "indexed": true,
          "internalType": "address",
          "name": "sendLib",
          "type": "address"
        },
        {
          "indexed": false,
          "internalType": "uint256",
          "name": "calldataSize",
          "type": "uint256"
        },
        {
          "indexed": false,
          "internalType": "uint256",
          "name": "price",
          "type": "uint256"
        },
        {
          "indexed": false,
          "internalType": "bytes",
          "name": "options",
          "type": "bytes"
        }
      ],
      "name": "ExecutorJobAssigned",
      "type": "event"
    },
    {
      "anonymous": false,
      "inputs": [
        {
          "indexed": true,
          "internalType": "uint32",
          "name": "dstEid",
          "type": "uint32"
        },
        {
          "components": [
            {
              "internalType": "uint256",
              "name": "baseFee",
              "type": "uint256"
            },
            {
              "internalType": "uint64",
              "name": "dstGasOverhead",
              "type": "uint64"
            },
            {
              "internalType": "uint64",
              "name": "dataSizeOverheadBytes",
              "type": "uint64"
            },
            {
              "internalType": "uint16",
              "name": "marginBps",
              "type": "uint16"
            }
          ],
          "indexed": false,
          "internalType": "struct WorkerTypes.FeeModel",
          "name": "model",
          "type": "tuple"
        }
      ],
      "name": "FeeModelSet",
      "type": "event"
    },
    {
      "anonymous": false,
      "inputs": [
        {
          "indexed": true,
          "internalType": "address",
          "name": "previousOwner",
          "type": "address"
        },
        {
          "indexed": true,
          "internalType": "address",
          "name": "newOwner",
          "type": "address"
        }
      ],
      "name": "OwnershipTransferred",
      "type": "event"
    },
    {
      "anonymous": false,
      "inputs": [
        {
          "indexed": true,
          "internalType": "uint32",
          "name": "dstEid",
          "type": "uint32"
        },
        {
          "indexed": true,
          "internalType": "address",
          "name": "sender",
          "type": "address"
        },
        {
          "components": [
            {
              "internalType": "bool",
              "name": "enabled",
              "type": "bool"
            },
            {
              "internalType": "uint256",
              "name": "maxMessageSize",
              "type": "uint256"
            },
            {
              "internalType": "uint128",
              "name": "minLzReceiveGas",
              "type": "uint128"
            },
            {
              "internalType": "uint128",
              "name": "maxLzReceiveGas",
              "type": "uint128"
            }
          ],
          "indexed": false,
          "internalType": "struct WorkerTypes.PathwayConfig",
          "name": "config",
          "type": "tuple"
        }
      ],
      "name": "PathwayConfigSet",
      "type": "event"
    },
    {
      "anonymous": false,
      "inputs": [
        {
          "indexed": false,
          "internalType": "bool",
          "name": "paused",
          "type": "bool"
        }
      ],
      "name": "PausedSet",
      "type": "event"
    },
    {
      "anonymous": false,
      "inputs": [
        {
          "indexed": true,
          "internalType": "address",
          "name": "previousPriceFeed",
          "type": "address"
        },
        {
          "indexed": true,
          "internalType": "address",
          "name": "newPriceFeed",
          "type": "address"
        }
      ],
      "name": "PriceFeedSet",
      "type": "event"
    },
    {
      "anonymous": false,
      "inputs": [
        {
          "indexed": true,
          "internalType": "address",
          "name": "sendLib",
          "type": "address"
        },
        {
          "indexed": true,
          "internalType": "address",
          "name": "recipient",
          "type": "address"
        },
        {
          "indexed": false,
          "internalType": "uint256",
          "name": "amount",
          "type": "uint256"
        }
      ],
      "name": "SendLibFeeWithdrawn",
      "type": "event"
    },
    {
      "anonymous": false,
      "inputs": [
        {
          "indexed": true,
          "internalType": "address",
          "name": "recipient",
          "type": "address"
        },
        {
          "indexed": false,
          "internalType": "uint256",
          "name": "amount",
          "type": "uint256"
        }
      ],
      "name": "Withdrawn",
      "type": "event"
    },
    {
      "inputs": [
        {
          "internalType": "address",
          "name": "sendLib",
          "type": "address"
        }
      ],
      "name": "allowedSendLib",
      "outputs": [
        {
          "internalType": "bool",
          "name": "allowed",
          "type": "bool"
        }
      ],
      "stateMutability": "view",
      "type": "function"
    },
    {
      "inputs": [
        {
          "internalType": "uint32",
          "name": "dstEid",
          "type": "uint32"
        },
        {
          "internalType": "address",
          "name": "sender",
          "type": "address"
        },
        {
          "internalType": "uint256",
          "name": "calldataSize",
          "type": "uint256"
        },
        {
          "internalType": "bytes",
          "name": "options",
          "type": "bytes"
        }
      ],
      "name": "assignJob",
      "outputs": [
        {
          "internalType": "uint256",
          "name": "price",
          "type": "uint256"
        }
      ],
      "stateMutability": "nonpayable",
      "type": "function"
    },
    {
      "inputs": [
        {
          "internalType": "uint32",
          "name": "dstEid",
          "type": "uint32"
        }
      ],
      "name": "feeModel",
      "outputs": [
        {
          "internalType": "uint256",
          "name": "baseFee",
          "type": "uint256"
        },
        {
          "internalType": "uint64",
          "name": "dstGasOverhead",
          "type": "uint64"
        },
        {
          "internalType": "uint64",
          "name": "dataSizeOverheadBytes",
          "type": "uint64"
        },
        {
          "internalType": "uint16",
          "name": "marginBps",
          "type": "uint16"
        }
      ],
      "stateMutability": "view",
      "type": "function"
    },
    {
      "inputs": [
        {
          "internalType": "uint32",
          "name": "dstEid",
          "type": "uint32"
        },
        {
          "internalType": "address",
          "name": "sender",
          "type": "address"
        },
        {
          "internalType": "uint256",
          "name": "calldataSize",
          "type": "uint256"
        },
        {
          "internalType": "bytes",
          "name": "options",
          "type": "bytes"
        }
      ],
      "name": "getFee",
      "outputs": [
        {
          "internalType": "uint256",
          "name": "price",
          "type": "uint256"
        }
      ],
      "stateMutability": "view",
      "type": "function"
    },
    {
      "inputs": [],
      "name": "owner",
      "outputs": [
        {
          "internalType": "address",
          "name": "",
          "type": "address"
        }
      ],
      "stateMutability": "view",
      "type": "function"
    },
    {
      "inputs": [
        {
          "internalType": "uint32",
          "name": "dstEid",
          "type": "uint32"
        },
        {
          "internalType": "address",
          "name": "sender",
          "type": "address"
        }
      ],
      "name": "pathwayConfig",
      "outputs": [
        {
          "internalType": "bool",
          "name": "enabled",
          "type": "bool"
        },
        {
          "internalType": "uint256",
          "name": "maxMessageSize",
          "type": "uint256"
        },
        {
          "internalType": "uint128",
          "name": "minLzReceiveGas",
          "type": "uint128"
        },
        {
          "internalType": "uint128",
          "name": "maxLzReceiveGas",
          "type": "uint128"
        }
      ],
      "stateMutability": "view",
      "type": "function"
    },
    {
      "inputs": [],
      "name": "paused",
      "outputs": [
        {
          "internalType": "bool",
          "name": "",
          "type": "bool"
        }
      ],
      "stateMutability": "view",
      "type": "function"
    },
    {
      "inputs": [],
      "name": "priceFeed",
      "outputs": [
        {
          "internalType": "contract IPriceFeed",
          "name": "",
          "type": "address"
        }
      ],
      "stateMutability": "view",
      "type": "function"
    },
    {
      "inputs": [],
      "name": "renounceOwnership",
      "outputs": [],
      "stateMutability": "nonpayable",
      "type": "function"
    },
    {
      "inputs": [
        {
          "internalType": "address",
          "name": "sendLib",
          "type": "address"
        },
        {
          "internalType": "bool",
          "name": "allowed",
          "type": "bool"
        }
      ],
      "name": "setAllowedSendLib",
      "outputs": [],
      "stateMutability": "nonpayable",
      "type": "function"
    },
    {
      "inputs": [
        {
          "internalType": "uint32",
          "name": "dstEid",
          "type": "uint32"
        },
        {
          "components": [
            {
              "internalType": "uint256",
              "name": "baseFee",
              "type": "uint256"
            },
            {
              "internalType": "uint64",
              "name": "dstGasOverhead",
              "type": "uint64"
            },
            {
              "internalType": "uint64",
              "name": "dataSizeOverheadBytes",
              "type": "uint64"
            },
            {
              "internalType": "uint16",
              "name": "marginBps",
              "type": "uint16"
            }
          ],
          "internalType": "struct WorkerTypes.FeeModel",
          "name": "model",
          "type": "tuple"
        }
      ],
      "name": "setFeeModel",
      "outputs": [],
      "stateMutability": "nonpayable",
      "type": "function"
    },
    {
      "inputs": [
        {
          "internalType": "uint32",
          "name": "dstEid",
          "type": "uint32"
        },
        {
          "internalType": "address",
          "name": "sender",
          "type": "address"
        },
        {
          "components": [
            {
              "internalType": "bool",
              "name": "enabled",
              "type": "bool"
            },
            {
              "internalType": "uint256",
              "name": "maxMessageSize",
              "type": "uint256"
            },
            {
              "internalType": "uint128",
              "name": "minLzReceiveGas",
              "type": "uint128"
            },
            {
              "internalType": "uint128",
              "name": "maxLzReceiveGas",
              "type": "uint128"
            }
          ],
          "internalType": "struct WorkerTypes.PathwayConfig",
          "name": "config",
          "type": "tuple"
        }
      ],
      "name": "setPathwayConfig",
      "outputs": [],
      "stateMutability": "nonpayable",
      "type": "function"
    },
    {
      "inputs": [
        {
          "internalType": "bool",
          "name": "value",
          "type": "bool"
        }
      ],
      "name": "setPaused",
      "outputs": [],
      "stateMutability": "nonpayable",
      "type": "function"
    },
    {
      "inputs": [
        {
          "internalType": "address",
          "name": "newPriceFeed",
          "type": "address"
        }
      ],
      "name": "setPriceFeed",
      "outputs": [],
      "stateMutability": "nonpayable",
      "type": "function"
    },
    {
      "inputs": [
        {
          "internalType": "address",
          "name": "newOwner",
          "type": "address"
        }
      ],
      "name": "transferOwnership",
      "outputs": [],
      "stateMutability": "nonpayable",
      "type": "function"
    },
    {
      "inputs": [
        {
          "internalType": "address payable",
          "name": "recipient",
          "type": "address"
        },
        {
          "internalType": "uint256",
          "name": "amount",
          "type": "uint256"
        }
      ],
      "name": "withdraw",
      "outputs": [],
      "stateMutability": "nonpayable",
      "type": "function"
    },
    {
      "inputs": [
        {
          "internalType": "address",
          "name": "sendLib",
          "type": "address"
        },
        {
          "internalType": "address",
          "name": "recipient",
          "type": "address"
        },
        {
          "internalType": "uint256",
          "name": "amount",
          "type": "uint256"
        }
      ],
      "name": "withdrawFee",
      "outputs": [],
      "stateMutability": "nonpayable",
      "type": "function"
    },
    {
      "stateMutability": "payable",
      "type": "receive"
    }
  ],
  "bytecode": "0x60803461012c57601f61152f38819003918201601f19168301916001600160401b0383118484101761013057808492604094855283398101031261012c57610052602061004b83610144565b9201610144565b6001600160a01b03909116908115610119575f80546001600160a01b031981168417825560405193916001600160a01b03909116907f8be0079c531659141344cd1fd0a4f28419497f9722a3daafe3b4186f6b6457e09080a36001600160a01b0316801561010757600180546001600160a01b0319811683179091556001600160a01b03167fd2d8394cf7549a5ddbc2ba3dd7b2de8d53c891472d1f2907008ed6a10045fdae5f80a36113d690816101598239f35b636ade937960e11b5f5260045260245ffd5b631e4fbdf760e01b5f525f60045260245ffd5b5f80fd5b634e487b7160e01b5f52604160045260245ffd5b51906001600160a01b038216820361012c5756fe6080604052600436101561001a575b3615610018575f80fd5b005b5f5f3560e01c80631095b6d71461098957806316c38b3c146109255780633ec107611461080357806352b97dc5146107995780635c975abb14610776578063709eb66414610751578063715018a6146106eb578063717e8a4214610624578063724e78da14610578578063741bef1a146105515780637ccf8a681461041957806383d570661461038c5780638b3823321461030d5780638da5cb5b146102e7578063c0355f26146102aa578063f2fde38b146101ff5763f3fef3a3146100e0575061000e565b346101fc5760403660031901126101fc576004356001600160a01b0381168091036101fa57602435610110610ba0565b8280808084865af13d156101f5573d67ffffffffffffffff81116101e15760405190610146601f8201601f191660200183610b7e565b81528460203d92013e5b156101835760207f7084f5476618d8e60b11ef0d7d3f06914655adb8793e28ff7f018d4c76d505d591604051908152a280f35b60646040517f08c379a000000000000000000000000000000000000000000000000000000000815260206004820152600f60248201527f7769746864726177206661696c656400000000000000000000000000000000006044820152fd5b602485634e487b7160e01b81526041600452fd5b610150565b505b80fd5b50346101fc5760203660031901126101fc576001600160a01b03610221610a96565b610229610ba0565b16801561027e576001600160a01b0382548273ffffffffffffffffffffffffffffffffffffffff198216178455167f8be0079c531659141344cd1fd0a4f28419497f9722a3daafe3b4186f6b6457e08380a380f35b6024827f1e4fbdf700000000000000000000000000000000000000000000000000000000815280600452fd5b50346101fc5760203660031901126101fc5760ff60406020926001600160a01b036102d3610a96565b168152600284522054166040519015158152f35b50346101fc57806003193601126101fc576001600160a01b036020915416604051908152f35b50346101fc5760403660031901126101fc576001600160a01b036040610331610ac2565b9263ffffffff61033f610aac565b9416815260046020522091165f52602052608060405f2060ff815416906002600182015491015490604051921515835260208301526001600160801b0381166040830152821c6060820152f35b50346101fc5760403660031901126101fc576103a6610a96565b6024359081151590818303610415577fe4cea40a160f90a7a4928fcfef76ba70cbb0a89532ee72ecc693882bb30f320b9161040b6001600160a01b036020936103ed610ba0565b169485875260028452604087209060ff801983541691151516179055565b604051908152a280f35b8380fd5b50346101fc5760c03660031901126101fc57610433610ac2565b61043b610aac565b90608036604319011261054d5763ffffffff90610456610ba0565b168083526004602052604083206001600160a01b0383165f5260205260405f2091604435928315159081850361054957805460ff191660ff86151516178155606435928360018301556084356001600160801b0381168082036105455760a435906001600160801b03821692838303610541577f1e07a4f8a383f1a98e54bef4eaa5673a6e41283e4e8656e666bf6ad82373e8a3976080976001600160a01b039760027fffffffffffffffffffffffffffffffff00000000000000000000000000000000878c1b1686179101556040519b508b5260208b01525060408901525060608701521693a380f35b8a80fd5b8880fd5b8580fd5b8280fd5b50346101fc57806003193601126101fc5760206001600160a01b0360015416604051908152f35b50346101fc5760203660031901126101fc576001600160a01b0361059a610a96565b6105a2610ba0565b1680156105f9576001600160a01b036001548273ffffffffffffffffffffffffffffffffffffffff19821617600155167fd2d8394cf7549a5ddbc2ba3dd7b2de8d53c891472d1f2907008ed6a10045fdae8380a380f35b7fd5bd26f2000000000000000000000000000000000000000000000000000000008252600452602490fd5b50346101fc5761063336610ad5565b90939160ff600354166106c357806020968361067381897f9d507db3d4bf9a5805aa3397528bac73945a19f7a2ff5fe49c56c3a1314fa4f9968a8a610bf4565b97604051938452888a8501526060604085015281606085015260808401376080848301015260808163ffffffff6001600160a01b03339816961694601f80199101168101030190a4604051908152f35b6004867f9e87fac8000000000000000000000000000000000000000000000000000000008152fd5b50346101fc57806003193601126101fc57610704610ba0565b806001600160a01b03815473ffffffffffffffffffffffffffffffffffffffff1981168355167f8be0079c531659141344cd1fd0a4f28419497f9722a3daafe3b4186f6b6457e08280a380f35b50346101fc57602061076e61076536610ad5565b93929092610bf4565b604051908152f35b50346101fc57806003193601126101fc57602060ff600354166040519015158152f35b50346101fc5760203660031901126101fc57604060809163ffffffff6107bd610ac2565b16815260056020522061ffff6001825492015460405192835267ffffffffffffffff8116602084015267ffffffffffffffff8160401c166040840152831c166060820152f35b50346101fc5760a03660031901126101fc5761081d610ac2565b60803660231901126101fa5763ffffffff90610837610ba0565b1680825260056020526040822060016024359182815501906044359067ffffffffffffffff8216928383036105495780549360643567ffffffffffffffff811691828203610545576084359561ffff871694858803610541577fac0b67e70874214badfb5e808cc7f31711169a1d69cd3b36f6dea252882b114098837fffffffffffffffffffffffffffff00000000000000000000000000000000000071ffff0000000000000000000000000000000060809b8c1b169216176fffffffffffffffff00000000000000008660401b16171790556040519586525060208501525060408301526060820152a280f35b50346101fc5760203660031901126101fc576004358015158091036101fa5760207f40db37ff5c0bdc2c427fbb2078c8f24afea940abac0e3c23bb4ea3bf2da2b21291610970610ba0565b60ff196003541660ff821617600355604051908152a180f35b5034610a7f576060366003190112610a7f576109a3610a96565b6109ab610aac565b906001600160a01b03604435916109c0610ba0565b1690815f52600260205260ff60405f20541615610a8357813b15610a7f576001600160a01b03604051937ffd9be52200000000000000000000000000000000000000000000000000000000855216928360048201528160248201525f8160448183875af18015610a7457610a5e575b5060207faa5f17666917dcacec1acf481cbb8e1254fb4ca9863c10cbdf8c0791fb26b0c291604051908152a380f35b610a6b9194505f90610b7e565b5f926020610a2f565b6040513d5f823e3d90fd5b5f80fd5b50633b226c5b60e21b5f5260045260245ffd5b600435906001600160a01b0382168203610a7f57565b602435906001600160a01b0382168203610a7f57565b6004359063ffffffff82168203610a7f57565b6080600319820112610a7f5760043563ffffffff81168103610a7f57916024356001600160a01b0381168103610a7f57916044359160643567ffffffffffffffff8111610a7f5782602382011215610a7f5780600401359267ffffffffffffffff8411610a7f5760248483010111610a7f576024019190565b6080810190811067ffffffffffffffff821117610b6a57604052565b634e487b7160e01b5f52604160045260245ffd5b90601f8019910116810190811067ffffffffffffffff821117610b6a57604052565b6001600160a01b035f54163303610bb357565b7f118cdaa7000000000000000000000000000000000000000000000000000000005f523360045260245ffd5b519067ffffffffffffffff82168203610a7f57565b9391949290945f94335f52600260205260ff60405f2054161561134a5763ffffffff1692835f52600460205260405f206001600160a01b0388165f5260205260405f209060405191610c4583610b4e565b60ff815416159889158452600260018301549260208601938452015499606060408601956001600160801b038d168752019a60801c8b526113115750518084116112e25750604051936040850185811067ffffffffffffffff821117610b6a576040525f855260208501905f825282156112d3575f928392905b808410611013575050505015610feb576001600160801b03808451169151168082108015610fd8575b610f995750506024929394955060806001600160a01b0360015416604051948580927ff23ab2350000000000000000000000000000000000000000000000000000000082528860048301525afa928315610f8e578693610f1f575b5083865260056020526001600160801b0360408720925116600160405193610d6a85610b4e565b805485520154906020840167ffffffffffffffff8316815261ffff604086019367ffffffffffffffff8160401c16855260801c169660608601978089526127108111610ef457506040870167ffffffffffffffff8151168015908115610ed2575b50610e8b5750509067ffffffffffffffff610de792511661135d565b9687151580610e82575b610e56575061271093610e34610e4c946020610e3a610e539a9b610e34610e2961ffff9967ffffffffffffffff610e439a511661135d565b9451918751906113b6565b9061135d565b930151906113b6565b935116836113b6565b049061135d565b90565b80887f669e8b2b0000000000000000000000000000000000000000000000000000000060249352600452fd5b50845115610df1565b6064918867ffffffffffffffff6060818f95511692015116917fd1cc11be000000000000000000000000000000000000000000000000000000008452600452602452604452fd5b610eec915067ffffffffffffffff60608b0151169061135d565b42115f610dcb565b7f57094aae000000000000000000000000000000000000000000000000000000008b5260045260248afd5b9092506080813d608011610f86575b81610f3b60809383610b7e565b8101031261054957610f7a606060405192610f5584610b4e565b8051845260208101516020850152610f6f60408201610bdf565b604085015201610bdf565b6060820152915f610d43565b3d9150610f2e565b6040513d88823e3d90fd5b60649187916001600160801b038a5116917f8135a9ab000000000000000000000000000000000000000000000000000000008452600452602452604452fd5b506001600160801b038851168211610ce8565b6004867f0bfe3dc4000000000000000000000000000000000000000000000000000000008152fd5b90929960048b9593950192838c116112bf578383106112b0578b611038818589611396565b3560f81c946001820180921161123d57908d93929161105d600386018093888c61137e565b90357fffff0000000000000000000000000000000000000000000000000000000000008116916002811061127b575b505060f01c94828615918215611260575b505061125157818f1161123d576110cf906110c7866110bd858a8e611396565b3560f81c9461135d565b90878b61137e565b9e909460030161ffff8111611229579061ffff6110ed92169061135d565b95600181036111fa57600182036111fa5750506111d25760108c1415806111c7575b61119f57806101fc578b601011610a7f57813560801c9160109160208e0361118d57505f9c602011610a7f576001600160801b0391013560801c5b16908185528852806111625750600193919290610cbf565b7f3ba8b62b000000000000000000000000000000000000000000000000000000008b5260045260248afd5b9c5050506001600160801b035f61114a565b807f4796aee10000000000000000000000000000000000000000000000000000000060049252fd5b5060208c141561110f565b807f56b04d0d0000000000000000000000000000000000000000000000000000000060049252fd5b7f04adc76400000000000000000000000000000000000000000000000000000000845260045260245250604490fd5b602485634e487b7160e01b81526011600452fd5b602484634e487b7160e01b81526011600452fd5b600484630280f17760e01b8152fd5b11905061123d57611271858361135d565b86108f839061109d565b7fffff0000000000000000000000000000000000000000000000000000000000009250829060020360031b1b16165f8061108c565b600482630280f17760e01b8152fd5b602482634e487b7160e01b81526011600452fd5b630280f17760e01b5f5260045ffd5b837f86933789000000000000000000000000000000000000000000000000000000005f5260045260245260445ffd5b6001600160a01b0390877f5c265cc3000000000000000000000000000000000000000000000000000000005f526004521660245260445ffd5b633b226c5b60e21b5f523360045260245ffd5b9190820180921161136a57565b634e487b7160e01b5f52601160045260245ffd5b90939293848311610a7f578411610a7f578101920390565b908210156113a2570190565b634e487b7160e01b5f52603260045260245ffd5b8181029291811591840414171561136a5756fea164736f6c6343000823000a",
  "linkReferences": {},
  "deployedLinkReferences": {},
  "immutableReferences": {},
  "inputSourceName": "project/contracts/contracts/workers/OpenExecutor.sol",
  "buildInfoId": "solc-0_8_35-98d2fd63dfd139ba006bf968ae845d45305374f0"
}