{
  "_format": "hh3-artifact-1",
  "contractName": "OpenExecutor",
  "sourceName": "contracts/contracts/workers/OpenExecutor.sol",
  "abi": [
    {
      "inputs": [
        {
          "internalType": "address",
          "name": "initialOwner",
          "type": "address"
        }
      ],
      "stateMutability": "nonpayable",
      "type": "constructor"
    },
    {
      "inputs": [],
      "name": "DuplicateLzReceiveOption",
      "type": "error"
    },
    {
      "inputs": [],
      "name": "Executor_InvalidLzReceiveOption",
      "type": "error"
    },
    {
      "inputs": [
        {
          "internalType": "uint16",
          "name": "bps",
          "type": "uint16"
        }
      ],
      "name": "InvalidBps",
      "type": "error"
    },
    {
      "inputs": [
        {
          "internalType": "uint256",
          "name": "gasLimit",
          "type": "uint256"
        },
        {
          "internalType": "uint256",
          "name": "minGas",
          "type": "uint256"
        },
        {
          "internalType": "uint256",
          "name": "maxGas",
          "type": "uint256"
        }
      ],
      "name": "InvalidGas",
      "type": "error"
    },
    {
      "inputs": [],
      "name": "InvalidOptions",
      "type": "error"
    },
    {
      "inputs": [
        {
          "internalType": "uint256",
          "name": "size",
          "type": "uint256"
        },
        {
          "internalType": "uint256",
          "name": "maxSize",
          "type": "uint256"
        }
      ],
      "name": "MessageTooLarge",
      "type": "error"
    },
    {
      "inputs": [],
      "name": "MissingLzReceiveOption",
      "type": "error"
    },
    {
      "inputs": [
        {
          "internalType": "uint128",
          "name": "value",
          "type": "uint128"
        }
      ],
      "name": "NonZeroLzReceiveValue",
      "type": "error"
    },
    {
      "inputs": [
        {
          "internalType": "address",
          "name": "owner",
          "type": "address"
        }
      ],
      "name": "OwnableInvalidOwner",
      "type": "error"
    },
    {
      "inputs": [
        {
          "internalType": "address",
          "name": "account",
          "type": "address"
        }
      ],
      "name": "OwnableUnauthorizedAccount",
      "type": "error"
    },
    {
      "inputs": [
        {
          "internalType": "uint32",
          "name": "dstEid",
          "type": "uint32"
        },
        {
          "internalType": "address",
          "name": "sender",
          "type": "address"
        }
      ],
      "name": "PathwayDisabled",
      "type": "error"
    },
    {
      "inputs": [],
      "name": "Paused",
      "type": "error"
    },
    {
      "inputs": [
        {
          "internalType": "uint32",
          "name": "dstEid",
          "type": "uint32"
        },
        {
          "internalType": "uint256",
          "name": "updatedAt",
          "type": "uint256"
        },
        {
          "internalType": "uint256",
          "name": "staleAfter",
          "type": "uint256"
        }
      ],
      "name": "PriceConfigStale",
      "type": "error"
    },
    {
      "inputs": [
        {
          "internalType": "address",
          "name": "sendLib",
          "type": "address"
        }
      ],
      "name": "UnauthorizedSendLib",
      "type": "error"
    },
    {
      "inputs": [
        {
          "internalType": "uint8",
          "name": "workerId",
          "type": "uint8"
        },
        {
          "internalType": "uint8",
          "name": "optionType",
          "type": "uint8"
        }
      ],
      "name": "UnsupportedOption",
      "type": "error"
    },
    {
      "anonymous": false,
      "inputs": [
        {
          "indexed": true,
          "internalType": "address",
          "name": "sendLib",
          "type": "address"
        },
        {
          "indexed": false,
          "internalType": "bool",
          "name": "allowed",
          "type": "bool"
        }
      ],
      "name": "AllowedSendLibSet",
      "type": "event"
    },
    {
      "anonymous": false,
      "inputs": [
        {
          "indexed": true,
          "internalType": "uint32",
          "name": "dstEid",
          "type": "uint32"
        },
        {
          "indexed": true,
          "internalType": "address",
          "name": "sender",
          "type": "address"
        },
        {
          "indexed": true,
          "internalType": "address",
          "name": "sendLib",
          "type": "address"
        },
        {
          "indexed": false,
          "internalType": "uint256",
          "name": "calldataSize",
          "type": "uint256"
        },
        {
          "indexed": false,
          "internalType": "uint256",
          "name": "price",
          "type": "uint256"
        },
        {
          "indexed": false,
          "internalType": "bytes",
          "name": "options",
          "type": "bytes"
        }
      ],
      "name": "ExecutorJobAssigned",
      "type": "event"
    },
    {
      "anonymous": false,
      "inputs": [
        {
          "indexed": true,
          "internalType": "address",
          "name": "previousOwner",
          "type": "address"
        },
        {
          "indexed": true,
          "internalType": "address",
          "name": "newOwner",
          "type": "address"
        }
      ],
      "name": "OwnershipTransferred",
      "type": "event"
    },
    {
      "anonymous": false,
      "inputs": [
        {
          "indexed": true,
          "internalType": "uint32",
          "name": "dstEid",
          "type": "uint32"
        },
        {
          "indexed": true,
          "internalType": "address",
          "name": "sender",
          "type": "address"
        },
        {
          "components": [
            {
              "internalType": "bool",
              "name": "enabled",
              "type": "bool"
            },
            {
              "internalType": "uint256",
              "name": "maxMessageSize",
              "type": "uint256"
            },
            {
              "internalType": "uint128",
              "name": "minLzReceiveGas",
              "type": "uint128"
            },
            {
              "internalType": "uint128",
              "name": "maxLzReceiveGas",
              "type": "uint128"
            }
          ],
          "indexed": false,
          "internalType": "struct WorkerTypes.PathwayConfig",
          "name": "config",
          "type": "tuple"
        }
      ],
      "name": "PathwayConfigSet",
      "type": "event"
    },
    {
      "anonymous": false,
      "inputs": [
        {
          "indexed": false,
          "internalType": "bool",
          "name": "paused",
          "type": "bool"
        }
      ],
      "name": "PausedSet",
      "type": "event"
    },
    {
      "anonymous": false,
      "inputs": [
        {
          "indexed": true,
          "internalType": "uint32",
          "name": "dstEid",
          "type": "uint32"
        },
        {
          "components": [
            {
              "internalType": "uint256",
              "name": "baseFee",
              "type": "uint256"
            },
            {
              "internalType": "uint256",
              "name": "dstGasPriceInSrcToken",
              "type": "uint256"
            },
            {
              "internalType": "uint16",
              "name": "bufferBps",
              "type": "uint16"
            },
            {
              "internalType": "uint64",
              "name": "updatedAt",
              "type": "uint64"
            },
            {
              "internalType": "uint64",
              "name": "staleAfter",
              "type": "uint64"
            }
          ],
          "indexed": false,
          "internalType": "struct WorkerTypes.PriceConfig",
          "name": "config",
          "type": "tuple"
        }
      ],
      "name": "PriceConfigSet",
      "type": "event"
    },
    {
      "anonymous": false,
      "inputs": [
        {
          "indexed": true,
          "internalType": "address",
          "name": "recipient",
          "type": "address"
        },
        {
          "indexed": false,
          "internalType": "uint256",
          "name": "amount",
          "type": "uint256"
        }
      ],
      "name": "Withdrawn",
      "type": "event"
    },
    {
      "inputs": [
        {
          "internalType": "address",
          "name": "sendLib",
          "type": "address"
        }
      ],
      "name": "allowedSendLib",
      "outputs": [
        {
          "internalType": "bool",
          "name": "allowed",
          "type": "bool"
        }
      ],
      "stateMutability": "view",
      "type": "function"
    },
    {
      "inputs": [
        {
          "internalType": "uint32",
          "name": "dstEid",
          "type": "uint32"
        },
        {
          "internalType": "address",
          "name": "sender",
          "type": "address"
        },
        {
          "internalType": "uint256",
          "name": "calldataSize",
          "type": "uint256"
        },
        {
          "internalType": "bytes",
          "name": "options",
          "type": "bytes"
        }
      ],
      "name": "assignJob",
      "outputs": [
        {
          "internalType": "uint256",
          "name": "price",
          "type": "uint256"
        }
      ],
      "stateMutability": "nonpayable",
      "type": "function"
    },
    {
      "inputs": [
        {
          "internalType": "uint32",
          "name": "dstEid",
          "type": "uint32"
        },
        {
          "internalType": "address",
          "name": "sender",
          "type": "address"
        },
        {
          "internalType": "uint256",
          "name": "calldataSize",
          "type": "uint256"
        },
        {
          "internalType": "bytes",
          "name": "options",
          "type": "bytes"
        }
      ],
      "name": "getFee",
      "outputs": [
        {
          "internalType": "uint256",
          "name": "price",
          "type": "uint256"
        }
      ],
      "stateMutability": "view",
      "type": "function"
    },
    {
      "inputs": [],
      "name": "owner",
      "outputs": [
        {
          "internalType": "address",
          "name": "",
          "type": "address"
        }
      ],
      "stateMutability": "view",
      "type": "function"
    },
    {
      "inputs": [
        {
          "internalType": "uint32",
          "name": "dstEid",
          "type": "uint32"
        },
        {
          "internalType": "address",
          "name": "sender",
          "type": "address"
        }
      ],
      "name": "pathwayConfig",
      "outputs": [
        {
          "internalType": "bool",
          "name": "enabled",
          "type": "bool"
        },
        {
          "internalType": "uint256",
          "name": "maxMessageSize",
          "type": "uint256"
        },
        {
          "internalType": "uint128",
          "name": "minLzReceiveGas",
          "type": "uint128"
        },
        {
          "internalType": "uint128",
          "name": "maxLzReceiveGas",
          "type": "uint128"
        }
      ],
      "stateMutability": "view",
      "type": "function"
    },
    {
      "inputs": [],
      "name": "paused",
      "outputs": [
        {
          "internalType": "bool",
          "name": "",
          "type": "bool"
        }
      ],
      "stateMutability": "view",
      "type": "function"
    },
    {
      "inputs": [
        {
          "internalType": "uint32",
          "name": "dstEid",
          "type": "uint32"
        }
      ],
      "name": "priceConfig",
      "outputs": [
        {
          "internalType": "uint256",
          "name": "baseFee",
          "type": "uint256"
        },
        {
          "internalType": "uint256",
          "name": "dstGasPriceInSrcToken",
          "type": "uint256"
        },
        {
          "internalType": "uint16",
          "name": "bufferBps",
          "type": "uint16"
        },
        {
          "internalType": "uint64",
          "name": "updatedAt",
          "type": "uint64"
        },
        {
          "internalType": "uint64",
          "name": "staleAfter",
          "type": "uint64"
        }
      ],
      "stateMutability": "view",
      "type": "function"
    },
    {
      "inputs": [],
      "name": "renounceOwnership",
      "outputs": [],
      "stateMutability": "nonpayable",
      "type": "function"
    },
    {
      "inputs": [
        {
          "internalType": "address",
          "name": "sendLib",
          "type": "address"
        },
        {
          "internalType": "bool",
          "name": "allowed",
          "type": "bool"
        }
      ],
      "name": "setAllowedSendLib",
      "outputs": [],
      "stateMutability": "nonpayable",
      "type": "function"
    },
    {
      "inputs": [
        {
          "internalType": "uint32",
          "name": "dstEid",
          "type": "uint32"
        },
        {
          "internalType": "address",
          "name": "sender",
          "type": "address"
        },
        {
          "components": [
            {
              "internalType": "bool",
              "name": "enabled",
              "type": "bool"
            },
            {
              "internalType": "uint256",
              "name": "maxMessageSize",
              "type": "uint256"
            },
            {
              "internalType": "uint128",
              "name": "minLzReceiveGas",
              "type": "uint128"
            },
            {
              "internalType": "uint128",
              "name": "maxLzReceiveGas",
              "type": "uint128"
            }
          ],
          "internalType": "struct WorkerTypes.PathwayConfig",
          "name": "config",
          "type": "tuple"
        }
      ],
      "name": "setPathwayConfig",
      "outputs": [],
      "stateMutability": "nonpayable",
      "type": "function"
    },
    {
      "inputs": [
        {
          "internalType": "bool",
          "name": "value",
          "type": "bool"
        }
      ],
      "name": "setPaused",
      "outputs": [],
      "stateMutability": "nonpayable",
      "type": "function"
    },
    {
      "inputs": [
        {
          "internalType": "uint32",
          "name": "dstEid",
          "type": "uint32"
        },
        {
          "components": [
            {
              "internalType": "uint256",
              "name": "baseFee",
              "type": "uint256"
            },
            {
              "internalType": "uint256",
              "name": "dstGasPriceInSrcToken",
              "type": "uint256"
            },
            {
              "internalType": "uint16",
              "name": "bufferBps",
              "type": "uint16"
            },
            {
              "internalType": "uint64",
              "name": "updatedAt",
              "type": "uint64"
            },
            {
              "internalType": "uint64",
              "name": "staleAfter",
              "type": "uint64"
            }
          ],
          "internalType": "struct WorkerTypes.PriceConfig",
          "name": "config",
          "type": "tuple"
        }
      ],
      "name": "setPriceConfig",
      "outputs": [],
      "stateMutability": "nonpayable",
      "type": "function"
    },
    {
      "inputs": [
        {
          "internalType": "address",
          "name": "newOwner",
          "type": "address"
        }
      ],
      "name": "transferOwnership",
      "outputs": [],
      "stateMutability": "nonpayable",
      "type": "function"
    },
    {
      "inputs": [
        {
          "internalType": "address payable",
          "name": "recipient",
          "type": "address"
        },
        {
          "internalType": "uint256",
          "name": "amount",
          "type": "uint256"
        }
      ],
      "name": "withdraw",
      "outputs": [],
      "stateMutability": "nonpayable",
      "type": "function"
    },
    {
      "stateMutability": "payable",
      "type": "receive"
    }
  ],
  "bytecode": "0x60803460b857601f61114438819003918201601f19168301916001600160401b0383118484101760bc5780849260209460405283398101031260b857516001600160a01b0381169081900360b857801560a5575f80546001600160a01b031981168317825560405192916001600160a01b03909116907f8be0079c531659141344cd1fd0a4f28419497f9722a3daafe3b4186f6b6457e09080a361107390816100d18239f35b631e4fbdf760e01b5f525f60045260245ffd5b5f80fd5b634e487b7160e01b5f52604160045260245ffdfe6080604052600436101561001a575b3615610018575f80fd5b005b5f3560e01c806302d484951461075f57806316c38b3c146106fd57806328314e0e1461068f5780635c975abb1461066d578063709eb66414610649578063715018a6146105e5578063717e8a421461051d5780637ccf8a68146103f757806383d57066146103705780638b382332146102f25780638da5cb5b146102cd578063c0355f2614610290578063f2fde38b146101e75763f3fef3a30361000e57346101e35760403660031901126101e3576004356001600160a01b0381168091036101e3576024356100e8610941565b5f80808084865af13d156101de573d67ffffffffffffffff81116101ca5760405190601f8101601f19908116603f0116820167ffffffffffffffff8111838210176101ca5760405281525f60203d92013e5b1561016c5760207f7084f5476618d8e60b11ef0d7d3f06914655adb8793e28ff7f018d4c76d505d591604051908152a2005b60646040517f08c379a000000000000000000000000000000000000000000000000000000000815260206004820152600f60248201527f7769746864726177206661696c656400000000000000000000000000000000006044820152fd5b634e487b7160e01b5f52604160045260245ffd5b61013a565b5f80fd5b346101e35760203660031901126101e3576001600160a01b036102086108b2565b610210610941565b168015610264576001600160a01b035f548273ffffffffffffffffffffffffffffffffffffffff198216175f55167f8be0079c531659141344cd1fd0a4f28419497f9722a3daafe3b4186f6b6457e05f80a3005b7f1e4fbdf7000000000000000000000000000000000000000000000000000000005f525f60045260245ffd5b346101e35760203660031901126101e3576001600160a01b036102b16108b2565b165f526001602052602060ff60405f2054166040519015158152f35b346101e3575f3660031901126101e35760206001600160a01b035f5416604051908152f35b346101e35760403660031901126101e35761030b610889565b63ffffffff61031861089c565b91165f5260046020526001600160a01b0360405f2091165f52602052608060405f2060ff815416906002600182015491015490604051921515835260208301526001600160801b0381166040830152821c6060820152f35b346101e35760403660031901126101e3576103896108b2565b60243590811515908183036101e3577fe4cea40a160f90a7a4928fcfef76ba70cbb0a89532ee72ecc693882bb30f320b916103ee6001600160a01b036020936103d0610941565b1694855f526001845260405f209060ff801983541691151516179055565b604051908152a2005b346101e35760c03660031901126101e357610410610889565b61041861089c565b9060803660431901126101e35763ffffffff90610433610941565b16805f52600460205260405f206001600160a01b0383165f5260205260405f209160443592831515908185036101e357805460ff191660ff86151516178155606435928360018301556084356001600160801b0381168082036101e35760a435906001600160801b038216928383036101e3577f1e07a4f8a383f1a98e54bef4eaa5673a6e41283e4e8656e666bf6ad82373e8a3976080976001600160a01b039760027fffffffffffffffffffffffffffffffff00000000000000000000000000000000878c1b1686179101556040519b508b5260208b01525060408901525060608701521693a3005b346101e35761052b366108c8565b60ff6002959294939554166105bd577f9d507db3d4bf9a5805aa3397528bac73945a19f7a2ff5fe49c56c3a1314fa4f9858261056c818860209a8989610980565b9660405192835287898401526060604084015281606084015260808301375f6080848301015260808163ffffffff6001600160a01b03339816961694601f80199101168101030190a4604051908152f35b7f9e87fac8000000000000000000000000000000000000000000000000000000005f5260045ffd5b346101e3575f3660031901126101e3576105fd610941565b5f6001600160a01b03815473ffffffffffffffffffffffffffffffffffffffff1981168355167f8be0079c531659141344cd1fd0a4f28419497f9722a3daafe3b4186f6b6457e08280a3005b346101e357602061066561065c366108c8565b93929092610980565b604051908152f35b346101e3575f3660031901126101e357602060ff600254166040519015158152f35b346101e35760203660031901126101e35763ffffffff6106ad610889565b165f52600360205260a060405f2067ffffffffffffffff8154916002600182015491015490604051938452602084015261ffff81166040840152818160101c16606084015260501c166080820152f35b346101e35760203660031901126101e3576004358015158091036101e35760207f40db37ff5c0bdc2c427fbb2078c8f24afea940abac0e3c23bb4ea3bf2da2b21291610747610941565b60ff196002541660ff821617600255604051908152a1005b346101e35760c03660031901126101e357610778610889565b60a03660231901126101e35763ffffffff90610792610941565b16805f52600360205260405f206024359081815560026044359182600182015501916064359161ffff83168093036101e35783549260843567ffffffffffffffff8116908181036101e35760a4359267ffffffffffffffff8416948585036101e3577fd468dde67e9f3eb6362d73900018cb3cd84026061bc4e4f7f2d4b983934f66739860a098837fffffffffffffffffffffffffffff00000000000000000000000000000000000071ffffffffffffffff000000000000000000008960501b1692161769ffffffffffffffff00008660101b161717905560405196875260208701526040860152506060840152506080820152a2005b6004359063ffffffff821682036101e357565b602435906001600160a01b03821682036101e357565b600435906001600160a01b03821682036101e357565b60806003198201126101e35760043563ffffffff811681036101e357916024356001600160a01b03811681036101e357916044359160643567ffffffffffffffff81116101e357826023820112156101e35780600401359267ffffffffffffffff84116101e357602484830101116101e3576024019190565b6001600160a01b035f5416330361095457565b7f118cdaa7000000000000000000000000000000000000000000000000000000005f523360045260245ffd5b9291909493945f93335f52600160205260ff60405f20541615610fce5763ffffffff1695865f52600460205260405f206001600160a01b0383165f5260205260405f2092604051936080850185811067ffffffffffffffff8211176101ca5760405260ff815416159384158652600260018301549260208801938452015494606060408801976001600160801b0388168952019560801c8652610f9557505190818111610f67575050604051936040850185811067ffffffffffffffff8211176101ca576040525f855260208501905f82528215610f58575f928392905b808410610c8d575050505015610c65576001600160801b0380845116925116908183108015610c52575b610c135750505083825260036020526001600160801b036040832091511660405160a0810181811067ffffffffffffffff821117610bff576040528254815260026001840154936020830194855201549361ffff8516966040830195888752606084019867ffffffffffffffff8260101c168a5267ffffffffffffffff608086019260501c1682526127108111610bd4575067ffffffffffffffff8951168015908115610bb5575b50610b7257505050610b6f949550610b5f61271093610b59610b689461ffff9451925190611033565b90610ffa565b93511683611033565b0490610ffa565b90565b6064935067ffffffffffffffff808a5116915116917f0955862f000000000000000000000000000000000000000000000000000000008452600452602452604452fd5b610bcc915067ffffffffffffffff83511690610ffa565b42115f610b30565b7f57094aae000000000000000000000000000000000000000000000000000000008452600452602483fd5b602485634e487b7160e01b81526041600452fd5b60649493506001600160801b03905116917f8135a9ab000000000000000000000000000000000000000000000000000000008452600452602452604452fd5b506001600160801b038151168311610a88565b6004847f0bfe3dc4000000000000000000000000000000000000000000000000000000008152fd5b90929760048995939501808a11610f4457808310610f3557610cb08a8488611046565b3560f81c9360018b01808c11610f2157610cd060038d018092878b61101b565b90357fffff00000000000000000000000000000000000000000000000000000000000081169160028110610eec575b505060f01c9283158015610ed3575b610ec457818d11610eb057610d3e90610d3685610d2c858a8e611046565b3560f81c94610ffa565b90878b61101b565b9c909360030161ffff8111610e9c579061ffff610d5c921690610ffa565b9560018103610e6e5760018203610e6e575050610e465760108a141580610e3b575b610e135781610e0f57896010116101e357803560801c916010919060208c03610dfd57505f9a6020116101e3576001600160801b0391013560801c5b1690818552885280610dd25750600193919290610a5e565b7f3ba8b62b000000000000000000000000000000000000000000000000000000008952600452602488fd5b9a5050506001600160801b035f610dba565b5080fd5b6004827f4796aee1000000000000000000000000000000000000000000000000000000008152fd5b5060208a1415610d7e565b6004827f56b04d0d000000000000000000000000000000000000000000000000000000008152fd5b7f04adc764000000000000000000000000000000000000000000000000000000008552600452602452604483fd5b602486634e487b7160e01b81526011600452fd5b602485634e487b7160e01b81526011600452fd5b600485630280f17760e01b8152fd5b50818d11610eb057610ee58483610ffa565b8610610d0e565b7fffff0000000000000000000000000000000000000000000000000000000000009250829060020360031b1b16165f80610cff565b602484634e487b7160e01b81526011600452fd5b600482630280f17760e01b8152fd5b602482634e487b7160e01b81526011600452fd5b630280f17760e01b5f5260045ffd5b7f86933789000000000000000000000000000000000000000000000000000000005f5260045260245260445ffd5b6001600160a01b03908a7f5c265cc3000000000000000000000000000000000000000000000000000000005f526004521660245260445ffd5b7fec89b16c000000000000000000000000000000000000000000000000000000005f523360045260245ffd5b9190820180921161100757565b634e487b7160e01b5f52601160045260245ffd5b909392938483116101e35784116101e3578101920390565b8181029291811591840414171561100757565b90821015611052570190565b634e487b7160e01b5f52603260045260245ffdfea164736f6c6343000823000a",
  "linkReferences": {},
  "deployedLinkReferences": {},
  "immutableReferences": {},
  "inputSourceName": "project/contracts/contracts/workers/OpenExecutor.sol",
  "buildInfoId": "solc-0_8_35-ee73e29c83ac8b8b93fb1afdcf9e2b986798763c"
}