{
  "_format": "hh3-artifact-1",
  "contractName": "OpenDVN",
  "sourceName": "contracts/contracts/workers/OpenDVN.sol",
  "abi": [
    {
      "inputs": [
        {
          "internalType": "address",
          "name": "initialOwner",
          "type": "address"
        }
      ],
      "stateMutability": "nonpayable",
      "type": "constructor"
    },
    {
      "inputs": [],
      "name": "EmptyDVNOptions",
      "type": "error"
    },
    {
      "inputs": [
        {
          "internalType": "uint256",
          "name": "required",
          "type": "uint256"
        },
        {
          "internalType": "uint256",
          "name": "supplied",
          "type": "uint256"
        }
      ],
      "name": "InsufficientFee",
      "type": "error"
    },
    {
      "inputs": [
        {
          "internalType": "uint16",
          "name": "bps",
          "type": "uint16"
        }
      ],
      "name": "InvalidBps",
      "type": "error"
    },
    {
      "inputs": [
        {
          "internalType": "uint256",
          "name": "size",
          "type": "uint256"
        },
        {
          "internalType": "uint256",
          "name": "maxSize",
          "type": "uint256"
        }
      ],
      "name": "MessageTooLarge",
      "type": "error"
    },
    {
      "inputs": [
        {
          "internalType": "address",
          "name": "owner",
          "type": "address"
        }
      ],
      "name": "OwnableInvalidOwner",
      "type": "error"
    },
    {
      "inputs": [
        {
          "internalType": "address",
          "name": "account",
          "type": "address"
        }
      ],
      "name": "OwnableUnauthorizedAccount",
      "type": "error"
    },
    {
      "inputs": [
        {
          "internalType": "uint32",
          "name": "dstEid",
          "type": "uint32"
        },
        {
          "internalType": "address",
          "name": "sender",
          "type": "address"
        }
      ],
      "name": "PathwayDisabled",
      "type": "error"
    },
    {
      "inputs": [],
      "name": "Paused",
      "type": "error"
    },
    {
      "inputs": [
        {
          "internalType": "uint32",
          "name": "dstEid",
          "type": "uint32"
        },
        {
          "internalType": "uint256",
          "name": "updatedAt",
          "type": "uint256"
        },
        {
          "internalType": "uint256",
          "name": "staleAfter",
          "type": "uint256"
        }
      ],
      "name": "PriceConfigStale",
      "type": "error"
    },
    {
      "inputs": [
        {
          "internalType": "address",
          "name": "sendLib",
          "type": "address"
        }
      ],
      "name": "UnauthorizedSendLib",
      "type": "error"
    },
    {
      "inputs": [
        {
          "internalType": "address",
          "name": "verifier",
          "type": "address"
        }
      ],
      "name": "UnauthorizedVerifier",
      "type": "error"
    },
    {
      "anonymous": false,
      "inputs": [
        {
          "indexed": true,
          "internalType": "address",
          "name": "sendLib",
          "type": "address"
        },
        {
          "indexed": false,
          "internalType": "bool",
          "name": "allowed",
          "type": "bool"
        }
      ],
      "name": "AllowedSendLibSet",
      "type": "event"
    },
    {
      "anonymous": false,
      "inputs": [
        {
          "indexed": true,
          "internalType": "bytes32",
          "name": "jobId",
          "type": "bytes32"
        },
        {
          "indexed": true,
          "internalType": "uint32",
          "name": "dstEid",
          "type": "uint32"
        },
        {
          "indexed": true,
          "internalType": "address",
          "name": "sender",
          "type": "address"
        },
        {
          "indexed": false,
          "internalType": "address",
          "name": "sendLib",
          "type": "address"
        },
        {
          "indexed": false,
          "internalType": "uint64",
          "name": "confirmations",
          "type": "uint64"
        },
        {
          "indexed": false,
          "internalType": "uint256",
          "name": "fee",
          "type": "uint256"
        }
      ],
      "name": "DVNJobAssigned",
      "type": "event"
    },
    {
      "anonymous": false,
      "inputs": [
        {
          "indexed": true,
          "internalType": "address",
          "name": "verifier",
          "type": "address"
        },
        {
          "indexed": true,
          "internalType": "address",
          "name": "receiveLib",
          "type": "address"
        },
        {
          "indexed": true,
          "internalType": "bytes32",
          "name": "payloadHash",
          "type": "bytes32"
        },
        {
          "indexed": false,
          "internalType": "bytes32",
          "name": "packetHeaderHash",
          "type": "bytes32"
        },
        {
          "indexed": false,
          "internalType": "uint64",
          "name": "confirmations",
          "type": "uint64"
        }
      ],
      "name": "DVNVerificationSubmitted",
      "type": "event"
    },
    {
      "anonymous": false,
      "inputs": [
        {
          "indexed": true,
          "internalType": "address",
          "name": "previousOwner",
          "type": "address"
        },
        {
          "indexed": true,
          "internalType": "address",
          "name": "newOwner",
          "type": "address"
        }
      ],
      "name": "OwnershipTransferred",
      "type": "event"
    },
    {
      "anonymous": false,
      "inputs": [
        {
          "indexed": true,
          "internalType": "uint32",
          "name": "dstEid",
          "type": "uint32"
        },
        {
          "indexed": true,
          "internalType": "address",
          "name": "sender",
          "type": "address"
        },
        {
          "components": [
            {
              "internalType": "bool",
              "name": "enabled",
              "type": "bool"
            },
            {
              "internalType": "uint256",
              "name": "maxMessageSize",
              "type": "uint256"
            },
            {
              "internalType": "uint128",
              "name": "minLzReceiveGas",
              "type": "uint128"
            },
            {
              "internalType": "uint128",
              "name": "maxLzReceiveGas",
              "type": "uint128"
            }
          ],
          "indexed": false,
          "internalType": "struct WorkerTypes.PathwayConfig",
          "name": "config",
          "type": "tuple"
        }
      ],
      "name": "PathwayConfigSet",
      "type": "event"
    },
    {
      "anonymous": false,
      "inputs": [
        {
          "indexed": false,
          "internalType": "bool",
          "name": "paused",
          "type": "bool"
        }
      ],
      "name": "PausedSet",
      "type": "event"
    },
    {
      "anonymous": false,
      "inputs": [
        {
          "indexed": true,
          "internalType": "uint32",
          "name": "dstEid",
          "type": "uint32"
        },
        {
          "components": [
            {
              "internalType": "uint256",
              "name": "baseFee",
              "type": "uint256"
            },
            {
              "internalType": "uint256",
              "name": "dstGasPriceInSrcToken",
              "type": "uint256"
            },
            {
              "internalType": "uint16",
              "name": "bufferBps",
              "type": "uint16"
            },
            {
              "internalType": "uint64",
              "name": "updatedAt",
              "type": "uint64"
            },
            {
              "internalType": "uint64",
              "name": "staleAfter",
              "type": "uint64"
            }
          ],
          "indexed": false,
          "internalType": "struct WorkerTypes.PriceConfig",
          "name": "config",
          "type": "tuple"
        }
      ],
      "name": "PriceConfigSet",
      "type": "event"
    },
    {
      "anonymous": false,
      "inputs": [
        {
          "indexed": true,
          "internalType": "address",
          "name": "verifier",
          "type": "address"
        },
        {
          "indexed": false,
          "internalType": "bool",
          "name": "allowed",
          "type": "bool"
        }
      ],
      "name": "VerifierSet",
      "type": "event"
    },
    {
      "anonymous": false,
      "inputs": [
        {
          "indexed": true,
          "internalType": "address",
          "name": "recipient",
          "type": "address"
        },
        {
          "indexed": false,
          "internalType": "uint256",
          "name": "amount",
          "type": "uint256"
        }
      ],
      "name": "Withdrawn",
      "type": "event"
    },
    {
      "inputs": [
        {
          "internalType": "address",
          "name": "sendLib",
          "type": "address"
        }
      ],
      "name": "allowedSendLib",
      "outputs": [
        {
          "internalType": "bool",
          "name": "allowed",
          "type": "bool"
        }
      ],
      "stateMutability": "view",
      "type": "function"
    },
    {
      "inputs": [
        {
          "components": [
            {
              "internalType": "uint32",
              "name": "dstEid",
              "type": "uint32"
            },
            {
              "internalType": "bytes",
              "name": "packetHeader",
              "type": "bytes"
            },
            {
              "internalType": "bytes32",
              "name": "payloadHash",
              "type": "bytes32"
            },
            {
              "internalType": "uint64",
              "name": "confirmations",
              "type": "uint64"
            },
            {
              "internalType": "address",
              "name": "sender",
              "type": "address"
            }
          ],
          "internalType": "struct ILayerZeroDVN.AssignJobParam",
          "name": "param",
          "type": "tuple"
        },
        {
          "internalType": "bytes",
          "name": "options",
          "type": "bytes"
        }
      ],
      "name": "assignJob",
      "outputs": [
        {
          "internalType": "uint256",
          "name": "fee",
          "type": "uint256"
        }
      ],
      "stateMutability": "payable",
      "type": "function"
    },
    {
      "inputs": [
        {
          "internalType": "uint32",
          "name": "dstEid",
          "type": "uint32"
        },
        {
          "internalType": "uint64",
          "name": "confirmations",
          "type": "uint64"
        },
        {
          "internalType": "address",
          "name": "sender",
          "type": "address"
        },
        {
          "internalType": "bytes",
          "name": "options",
          "type": "bytes"
        }
      ],
      "name": "getFee",
      "outputs": [
        {
          "internalType": "uint256",
          "name": "fee",
          "type": "uint256"
        }
      ],
      "stateMutability": "view",
      "type": "function"
    },
    {
      "inputs": [],
      "name": "owner",
      "outputs": [
        {
          "internalType": "address",
          "name": "",
          "type": "address"
        }
      ],
      "stateMutability": "view",
      "type": "function"
    },
    {
      "inputs": [
        {
          "internalType": "uint32",
          "name": "dstEid",
          "type": "uint32"
        },
        {
          "internalType": "address",
          "name": "sender",
          "type": "address"
        }
      ],
      "name": "pathwayConfig",
      "outputs": [
        {
          "internalType": "bool",
          "name": "enabled",
          "type": "bool"
        },
        {
          "internalType": "uint256",
          "name": "maxMessageSize",
          "type": "uint256"
        },
        {
          "internalType": "uint128",
          "name": "minLzReceiveGas",
          "type": "uint128"
        },
        {
          "internalType": "uint128",
          "name": "maxLzReceiveGas",
          "type": "uint128"
        }
      ],
      "stateMutability": "view",
      "type": "function"
    },
    {
      "inputs": [],
      "name": "paused",
      "outputs": [
        {
          "internalType": "bool",
          "name": "",
          "type": "bool"
        }
      ],
      "stateMutability": "view",
      "type": "function"
    },
    {
      "inputs": [
        {
          "internalType": "uint32",
          "name": "dstEid",
          "type": "uint32"
        }
      ],
      "name": "priceConfig",
      "outputs": [
        {
          "internalType": "uint256",
          "name": "baseFee",
          "type": "uint256"
        },
        {
          "internalType": "uint256",
          "name": "dstGasPriceInSrcToken",
          "type": "uint256"
        },
        {
          "internalType": "uint16",
          "name": "bufferBps",
          "type": "uint16"
        },
        {
          "internalType": "uint64",
          "name": "updatedAt",
          "type": "uint64"
        },
        {
          "internalType": "uint64",
          "name": "staleAfter",
          "type": "uint64"
        }
      ],
      "stateMutability": "view",
      "type": "function"
    },
    {
      "inputs": [],
      "name": "renounceOwnership",
      "outputs": [],
      "stateMutability": "nonpayable",
      "type": "function"
    },
    {
      "inputs": [
        {
          "internalType": "address",
          "name": "sendLib",
          "type": "address"
        },
        {
          "internalType": "bool",
          "name": "allowed",
          "type": "bool"
        }
      ],
      "name": "setAllowedSendLib",
      "outputs": [],
      "stateMutability": "nonpayable",
      "type": "function"
    },
    {
      "inputs": [
        {
          "internalType": "uint32",
          "name": "dstEid",
          "type": "uint32"
        },
        {
          "internalType": "address",
          "name": "sender",
          "type": "address"
        },
        {
          "components": [
            {
              "internalType": "bool",
              "name": "enabled",
              "type": "bool"
            },
            {
              "internalType": "uint256",
              "name": "maxMessageSize",
              "type": "uint256"
            },
            {
              "internalType": "uint128",
              "name": "minLzReceiveGas",
              "type": "uint128"
            },
            {
              "internalType": "uint128",
              "name": "maxLzReceiveGas",
              "type": "uint128"
            }
          ],
          "internalType": "struct WorkerTypes.PathwayConfig",
          "name": "config",
          "type": "tuple"
        }
      ],
      "name": "setPathwayConfig",
      "outputs": [],
      "stateMutability": "nonpayable",
      "type": "function"
    },
    {
      "inputs": [
        {
          "internalType": "bool",
          "name": "value",
          "type": "bool"
        }
      ],
      "name": "setPaused",
      "outputs": [],
      "stateMutability": "nonpayable",
      "type": "function"
    },
    {
      "inputs": [
        {
          "internalType": "uint32",
          "name": "dstEid",
          "type": "uint32"
        },
        {
          "components": [
            {
              "internalType": "uint256",
              "name": "baseFee",
              "type": "uint256"
            },
            {
              "internalType": "uint256",
              "name": "dstGasPriceInSrcToken",
              "type": "uint256"
            },
            {
              "internalType": "uint16",
              "name": "bufferBps",
              "type": "uint16"
            },
            {
              "internalType": "uint64",
              "name": "updatedAt",
              "type": "uint64"
            },
            {
              "internalType": "uint64",
              "name": "staleAfter",
              "type": "uint64"
            }
          ],
          "internalType": "struct WorkerTypes.PriceConfig",
          "name": "config",
          "type": "tuple"
        }
      ],
      "name": "setPriceConfig",
      "outputs": [],
      "stateMutability": "nonpayable",
      "type": "function"
    },
    {
      "inputs": [
        {
          "internalType": "address",
          "name": "verifier",
          "type": "address"
        },
        {
          "internalType": "bool",
          "name": "allowed",
          "type": "bool"
        }
      ],
      "name": "setVerifier",
      "outputs": [],
      "stateMutability": "nonpayable",
      "type": "function"
    },
    {
      "inputs": [
        {
          "internalType": "address",
          "name": "receiveLib",
          "type": "address"
        },
        {
          "internalType": "bytes",
          "name": "packetHeader",
          "type": "bytes"
        },
        {
          "internalType": "bytes32",
          "name": "payloadHash",
          "type": "bytes32"
        },
        {
          "internalType": "uint64",
          "name": "confirmations",
          "type": "uint64"
        }
      ],
      "name": "submitVerification",
      "outputs": [],
      "stateMutability": "nonpayable",
      "type": "function"
    },
    {
      "inputs": [
        {
          "internalType": "address",
          "name": "newOwner",
          "type": "address"
        }
      ],
      "name": "transferOwnership",
      "outputs": [],
      "stateMutability": "nonpayable",
      "type": "function"
    },
    {
      "inputs": [
        {
          "internalType": "address",
          "name": "verifier",
          "type": "address"
        }
      ],
      "name": "verifiers",
      "outputs": [
        {
          "internalType": "bool",
          "name": "allowed",
          "type": "bool"
        }
      ],
      "stateMutability": "view",
      "type": "function"
    },
    {
      "inputs": [
        {
          "internalType": "address payable",
          "name": "recipient",
          "type": "address"
        },
        {
          "internalType": "uint256",
          "name": "amount",
          "type": "uint256"
        }
      ],
      "name": "withdraw",
      "outputs": [],
      "stateMutability": "nonpayable",
      "type": "function"
    },
    {
      "stateMutability": "payable",
      "type": "receive"
    }
  ],
  "bytecode": "0x60803460b857601f6112f038819003918201601f19168301916001600160401b0383118484101760bc5780849260209460405283398101031260b857516001600160a01b0381169081900360b857801560a5575f80546001600160a01b031981168317825560405192916001600160a01b03909116907f8be0079c531659141344cd1fd0a4f28419497f9722a3daafe3b4186f6b6457e09080a361121f90816100d18239f35b631e4fbdf760e01b5f525f60045260245ffd5b5f80fd5b634e487b7160e01b5f52604160045260245ffdfe6080604052600436101561001a575b3615610018575f80fd5b005b5f5f3560e01c806302d4849514610ef257806316c38b3c14610e9057806328314e0e14610e2257806330bb3aac14610c5a5780635c975abb14610c385780636c82448714610bfb578063715018a614610b975780637ccf8a6814610a5f57806383d57066146109e85780638b382332146109615780638da5cb5b1461093c57806395d376d7146104db578063ac9b567114610459578063c0355f261461041c578063d149913a14610286578063f2fde38b146101db5763f3fef3a3146100e0575061000e565b346101d85760403660031901126101d8576004356001600160a01b0381168091036101d6576024356101106111c6565b8280808084865af13d156101d1573d610128816111aa565b906101366040519283611188565b81528460203d92013e5b156101735760207f7084f5476618d8e60b11ef0d7d3f06914655adb8793e28ff7f018d4c76d505d591604051908152a280f35b60646040517f08c379a000000000000000000000000000000000000000000000000000000000815260206004820152600f60248201527f7769746864726177206661696c656400000000000000000000000000000000006044820152fd5b610140565b505b80fd5b50346101d85760203660031901126101d8576001600160a01b036101fd611055565b6102056111c6565b16801561025a576001600160a01b0382548273ffffffffffffffffffffffffffffffffffffffff198216178455167f8be0079c531659141344cd1fd0a4f28419497f9722a3daafe3b4186f6b6457e08380a380f35b6024827f1e4fbdf700000000000000000000000000000000000000000000000000000000815280600452fd5b50346103ec5760803660031901126103ec576102a0611055565b60243567ffffffffffffffff81116103ec576102c0903690600401611081565b91604435926064359167ffffffffffffffff83168093036103ec57335f52600560205260ff60405f205416156103f0576001600160a01b031692833b156103ec576040517f0223536e000000000000000000000000000000000000000000000000000000008152606060048201525f818061033f60648201878761111c565b896024830152876044830152038183895af180156103e1576103cc575b5085610367836111aa565b916103756040519384611188565b838352602083019336818301116103c857806020928637830101525190209060405191825260208201527f07db14d38d801e5489d7db21e5024142bea6cb4ed3cc3e4e7f0433701526d6e760403392a480f35b8280fd5b6103d99196505f90611188565b5f945f61035c565b6040513d5f823e3d90fd5b5f80fd5b7f1eb1c0a5000000000000000000000000000000000000000000000000000000005f523360045260245ffd5b346103ec5760203660031901126103ec576001600160a01b0361043d611055565b165f526001602052602060ff60405f2054166040519015158152f35b346103ec5760403660031901126103ec57610472611055565b7f7a6dd775b9b6aa6ebde6f0c51172ef328eb9658e095364751705f28234e7257c60206001600160a01b036104a561102f565b936104ae6111c6565b1692835f52600582526104d08160405f209060ff801983541691151516179055565b6040519015158152a2005b60403660031901126103ec5760043567ffffffffffffffff81116103ec578060040160a060031983360301126103ec5760243567ffffffffffffffff81116103ec5761052b903690600401611081565b905060ff6002541661091457610540826110af565b91606484019061054f826110c0565b50608485019261055e846110d5565b90602487019561056e87856110e9565b929050335f52600160205260ff60405f205416156108e8576108c05763ffffffff1691825f52600460205260405f206001600160a01b0382165f5260205260405f20906040516105bd8161113c565b60ff835416159081158152606060026001860154956020840196875201546fffffffffffffffffffffffffffffffff8116604084015260801c9101526108a057505190818111610872575050805f52600360205260405f206002604051916106248361116c565b805483526001810154602084015201549161ffff8316926040830193808552606084019067ffffffffffffffff8360101c16825267ffffffffffffffff608086019360501c1683526127108111610847575067ffffffffffffffff8151168015908115610828575b506107e65750505061ffff9051915116908181029181830414811517156107d2576127106106bb920490611205565b938434106107a257606063ffffffff6001600160a01b0361077961077361076d878a61076461072360209f8861071b7febc514c7824537709d4fe49dd48672e773c99a94b10cccd97c57d575a3f583559d610715886110af565b976110e9565b9390956110d5565b6044610749604051976020968f8a9889019b168b526080604089015260a088019161111c565b9301358d85015216608083015203601f198101835282611188565b519020976110af565b986110d5565b966110c0565b9567ffffffffffffffff60405197338952168a88015288604088015216951693a4604051908152f35b847fa458261b000000000000000000000000000000000000000000000000000000005f526004523460245260445ffd5b634e487b7160e01b5f52601160045260245ffd5b67ffffffffffffffff80915116915116917f0955862f000000000000000000000000000000000000000000000000000000005f5260045260245260445260645ffd5b61083f915067ffffffffffffffff84511690611205565b42118b61068c565b7f57094aae000000000000000000000000000000000000000000000000000000005f5260045260245ffd5b7f86933789000000000000000000000000000000000000000000000000000000005f5260045260245260445ffd5b6001600160a01b039084635c265cc360e01b5f526004521660245260445ffd5b7ff1ca1b39000000000000000000000000000000000000000000000000000000005f5260045ffd5b7fec89b16c000000000000000000000000000000000000000000000000000000005f523360045260245ffd5b7f9e87fac8000000000000000000000000000000000000000000000000000000005f5260045ffd5b346103ec575f3660031901126103ec5760206001600160a01b035f5416604051908152f35b346103ec5760403660031901126103ec5761097a61101c565b63ffffffff61098761106b565b91165f5260046020526001600160a01b0360405f2091165f52602052608060405f2060ff815416906002600182015491015490604051921515835260208301526fffffffffffffffffffffffffffffffff81166040830152821c6060820152f35b346103ec5760403660031901126103ec57610a01611055565b7fe4cea40a160f90a7a4928fcfef76ba70cbb0a89532ee72ecc693882bb30f320b60206001600160a01b03610a3461102f565b93610a3d6111c6565b1692835f52600182526104d08160405f209060ff801983541691151516179055565b346103ec5760c03660031901126103ec57610a7861101c565b610a8061106b565b9060803660431901126103ec5763ffffffff90610a9b6111c6565b16805f52600460205260405f206001600160a01b0383165f5260205260405f209160443592831515908185036103ec57805460ff191660ff86151516178155606435928360018301556084356fffffffffffffffffffffffffffffffff81168082036103ec5760a435906fffffffffffffffffffffffffffffffff8216928383036103ec577f1e07a4f8a383f1a98e54bef4eaa5673a6e41283e4e8656e666bf6ad82373e8a3976080976001600160a01b039760027fffffffffffffffffffffffffffffffff00000000000000000000000000000000878c1b1686179101556040519b508b5260208b01525060408901525060608701521693a3005b346103ec575f3660031901126103ec57610baf6111c6565b5f6001600160a01b03815473ffffffffffffffffffffffffffffffffffffffff1981168355167f8be0079c531659141344cd1fd0a4f28419497f9722a3daafe3b4186f6b6457e08280a3005b346103ec5760203660031901126103ec576001600160a01b03610c1c611055565b165f526005602052602060ff60405f2054166040519015158152f35b346103ec575f3660031901126103ec57602060ff600254166040519015158152f35b346103ec5760803660031901126103ec57610c7361101c565b610c7b61103e565b50604435906001600160a01b0382168092036103ec5760643567ffffffffffffffff81116103ec57610cb1903690600401611081565b9050335f52600160205260ff60405f205416156108e8576108c05763ffffffff1690815f52600460205260405f20815f5260205260405f20604051610cf58161113c565b6060600260ff8454161593841584526001810154602085015201546fffffffffffffffffffffffffffffffff8116604084015260801c910152610e0c5750805f52600360205260405f20600260405191610d4e8361116c565b805483526001810154602084015201549161ffff8316926040830193808552606084019067ffffffffffffffff8360101c16825267ffffffffffffffff608086019360501c1683526127108111610847575067ffffffffffffffff8151168015908115610ded575b506107e6578461ffff85519151168082029082820414821517156107d257602091612710610de5920490611205565b604051908152f35b610e04915067ffffffffffffffff84511690611205565b421186610db6565b90635c265cc360e01b5f5260045260245260445ffd5b346103ec5760203660031901126103ec5763ffffffff610e4061101c565b165f52600360205260a060405f2067ffffffffffffffff8154916002600182015491015490604051938452602084015261ffff81166040840152818160101c16606084015260501c166080820152f35b346103ec5760203660031901126103ec576004358015158091036103ec5760207f40db37ff5c0bdc2c427fbb2078c8f24afea940abac0e3c23bb4ea3bf2da2b21291610eda6111c6565b60ff196002541660ff821617600255604051908152a1005b346103ec5760c03660031901126103ec57610f0b61101c565b60a03660231901126103ec5763ffffffff90610f256111c6565b16805f52600360205260405f206024359081815560026044359182600182015501916064359161ffff83168093036103ec5783549260843567ffffffffffffffff8116908181036103ec5760a4359267ffffffffffffffff8416948585036103ec577fd468dde67e9f3eb6362d73900018cb3cd84026061bc4e4f7f2d4b983934f66739860a098837fffffffffffffffffffffffffffff00000000000000000000000000000000000071ffffffffffffffff000000000000000000008960501b1692161769ffffffffffffffff00008660101b161717905560405196875260208701526040860152506060840152506080820152a2005b6004359063ffffffff821682036103ec57565b6024359081151582036103ec57565b6024359067ffffffffffffffff821682036103ec57565b600435906001600160a01b03821682036103ec57565b602435906001600160a01b03821682036103ec57565b9181601f840112156103ec5782359167ffffffffffffffff83116103ec57602083818601950101116103ec57565b3563ffffffff811681036103ec5790565b3567ffffffffffffffff811681036103ec5790565b356001600160a01b03811681036103ec5790565b903590601e19813603018212156103ec570180359067ffffffffffffffff82116103ec576020019181360383136103ec57565b908060209392818452848401375f828201840152601f01601f1916010190565b6080810190811067ffffffffffffffff82111761115857604052565b634e487b7160e01b5f52604160045260245ffd5b60a0810190811067ffffffffffffffff82111761115857604052565b90601f8019910116810190811067ffffffffffffffff82111761115857604052565b67ffffffffffffffff811161115857601f01601f191660200190565b6001600160a01b035f541633036111d957565b7f118cdaa7000000000000000000000000000000000000000000000000000000005f523360045260245ffd5b919082018092116107d25756fea164736f6c6343000823000a",
  "linkReferences": {},
  "deployedLinkReferences": {},
  "immutableReferences": {},
  "inputSourceName": "project/contracts/contracts/workers/OpenDVN.sol",
  "buildInfoId": "solc-0_8_35-2b148029759bb096889efcc5c11fb2a745a17773"
}