{
  "_format": "hh3-artifact-1",
  "contractName": "TestOFT",
  "sourceName": "contracts/contracts/oft/TestOFT.sol",
  "abi": [
    {
      "inputs": [
        {
          "internalType": "string",
          "name": "name_",
          "type": "string"
        },
        {
          "internalType": "string",
          "name": "symbol_",
          "type": "string"
        },
        {
          "internalType": "address",
          "name": "endpoint_",
          "type": "address"
        },
        {
          "internalType": "address",
          "name": "delegate_",
          "type": "address"
        },
        {
          "internalType": "address",
          "name": "initialRecipient_",
          "type": "address"
        },
        {
          "internalType": "uint256",
          "name": "initialSupply_",
          "type": "uint256"
        }
      ],
      "stateMutability": "nonpayable",
      "type": "constructor"
    },
    {
      "inputs": [
        {
          "internalType": "address",
          "name": "spender",
          "type": "address"
        },
        {
          "internalType": "uint256",
          "name": "allowance",
          "type": "uint256"
        },
        {
          "internalType": "uint256",
          "name": "needed",
          "type": "uint256"
        }
      ],
      "name": "ERC20InsufficientAllowance",
      "type": "error"
    },
    {
      "inputs": [
        {
          "internalType": "address",
          "name": "sender",
          "type": "address"
        },
        {
          "internalType": "uint256",
          "name": "balance",
          "type": "uint256"
        },
        {
          "internalType": "uint256",
          "name": "needed",
          "type": "uint256"
        }
      ],
      "name": "ERC20InsufficientBalance",
      "type": "error"
    },
    {
      "inputs": [
        {
          "internalType": "address",
          "name": "approver",
          "type": "address"
        }
      ],
      "name": "ERC20InvalidApprover",
      "type": "error"
    },
    {
      "inputs": [
        {
          "internalType": "address",
          "name": "receiver",
          "type": "address"
        }
      ],
      "name": "ERC20InvalidReceiver",
      "type": "error"
    },
    {
      "inputs": [
        {
          "internalType": "address",
          "name": "sender",
          "type": "address"
        }
      ],
      "name": "ERC20InvalidSender",
      "type": "error"
    },
    {
      "inputs": [
        {
          "internalType": "address",
          "name": "spender",
          "type": "address"
        }
      ],
      "name": "ERC20InvalidSpender",
      "type": "error"
    },
    {
      "inputs": [],
      "name": "InvalidDelegate",
      "type": "error"
    },
    {
      "inputs": [],
      "name": "InvalidEndpointCall",
      "type": "error"
    },
    {
      "inputs": [],
      "name": "InvalidLocalDecimals",
      "type": "error"
    },
    {
      "inputs": [
        {
          "internalType": "bytes",
          "name": "options",
          "type": "bytes"
        }
      ],
      "name": "InvalidOptions",
      "type": "error"
    },
    {
      "inputs": [],
      "name": "LzTokenUnavailable",
      "type": "error"
    },
    {
      "inputs": [
        {
          "internalType": "uint32",
          "name": "eid",
          "type": "uint32"
        }
      ],
      "name": "NoPeer",
      "type": "error"
    },
    {
      "inputs": [
        {
          "internalType": "uint256",
          "name": "msgValue",
          "type": "uint256"
        }
      ],
      "name": "NotEnoughNative",
      "type": "error"
    },
    {
      "inputs": [
        {
          "internalType": "address",
          "name": "addr",
          "type": "address"
        }
      ],
      "name": "OnlyEndpoint",
      "type": "error"
    },
    {
      "inputs": [
        {
          "internalType": "uint32",
          "name": "eid",
          "type": "uint32"
        },
        {
          "internalType": "bytes32",
          "name": "sender",
          "type": "bytes32"
        }
      ],
      "name": "OnlyPeer",
      "type": "error"
    },
    {
      "inputs": [],
      "name": "OnlySelf",
      "type": "error"
    },
    {
      "inputs": [
        {
          "internalType": "address",
          "name": "owner",
          "type": "address"
        }
      ],
      "name": "OwnableInvalidOwner",
      "type": "error"
    },
    {
      "inputs": [
        {
          "internalType": "address",
          "name": "account",
          "type": "address"
        }
      ],
      "name": "OwnableUnauthorizedAccount",
      "type": "error"
    },
    {
      "inputs": [
        {
          "internalType": "uint32",
          "name": "dstEid",
          "type": "uint32"
        },
        {
          "internalType": "uint256",
          "name": "requested",
          "type": "uint256"
        },
        {
          "internalType": "uint256",
          "name": "available",
          "type": "uint256"
        }
      ],
      "name": "RateLimitExceeded",
      "type": "error"
    },
    {
      "inputs": [
        {
          "internalType": "uint32",
          "name": "srcEid",
          "type": "uint32"
        }
      ],
      "name": "ReceivePaused",
      "type": "error"
    },
    {
      "inputs": [
        {
          "internalType": "address",
          "name": "token",
          "type": "address"
        }
      ],
      "name": "SafeERC20FailedOperation",
      "type": "error"
    },
    {
      "inputs": [
        {
          "internalType": "uint32",
          "name": "dstEid",
          "type": "uint32"
        }
      ],
      "name": "SendPaused",
      "type": "error"
    },
    {
      "inputs": [
        {
          "internalType": "bytes",
          "name": "result",
          "type": "bytes"
        }
      ],
      "name": "SimulationResult",
      "type": "error"
    },
    {
      "inputs": [
        {
          "internalType": "uint256",
          "name": "amountLD",
          "type": "uint256"
        },
        {
          "internalType": "uint256",
          "name": "minAmountLD",
          "type": "uint256"
        }
      ],
      "name": "SlippageExceeded",
      "type": "error"
    },
    {
      "anonymous": false,
      "inputs": [
        {
          "indexed": true,
          "internalType": "address",
          "name": "owner",
          "type": "address"
        },
        {
          "indexed": true,
          "internalType": "address",
          "name": "spender",
          "type": "address"
        },
        {
          "indexed": false,
          "internalType": "uint256",
          "name": "value",
          "type": "uint256"
        }
      ],
      "name": "Approval",
      "type": "event"
    },
    {
      "anonymous": false,
      "inputs": [
        {
          "components": [
            {
              "internalType": "uint32",
              "name": "eid",
              "type": "uint32"
            },
            {
              "internalType": "uint16",
              "name": "msgType",
              "type": "uint16"
            },
            {
              "internalType": "bytes",
              "name": "options",
              "type": "bytes"
            }
          ],
          "indexed": false,
          "internalType": "struct EnforcedOptionParam[]",
          "name": "_enforcedOptions",
          "type": "tuple[]"
        }
      ],
      "name": "EnforcedOptionSet",
      "type": "event"
    },
    {
      "anonymous": false,
      "inputs": [
        {
          "indexed": false,
          "internalType": "address",
          "name": "inspector",
          "type": "address"
        }
      ],
      "name": "MsgInspectorSet",
      "type": "event"
    },
    {
      "anonymous": false,
      "inputs": [
        {
          "indexed": true,
          "internalType": "bytes32",
          "name": "guid",
          "type": "bytes32"
        },
        {
          "indexed": false,
          "internalType": "uint32",
          "name": "srcEid",
          "type": "uint32"
        },
        {
          "indexed": true,
          "internalType": "address",
          "name": "toAddress",
          "type": "address"
        },
        {
          "indexed": false,
          "internalType": "uint256",
          "name": "amountReceivedLD",
          "type": "uint256"
        }
      ],
      "name": "OFTReceived",
      "type": "event"
    },
    {
      "anonymous": false,
      "inputs": [
        {
          "indexed": true,
          "internalType": "bytes32",
          "name": "guid",
          "type": "bytes32"
        },
        {
          "indexed": false,
          "internalType": "uint32",
          "name": "dstEid",
          "type": "uint32"
        },
        {
          "indexed": true,
          "internalType": "address",
          "name": "fromAddress",
          "type": "address"
        },
        {
          "indexed": false,
          "internalType": "uint256",
          "name": "amountSentLD",
          "type": "uint256"
        },
        {
          "indexed": false,
          "internalType": "uint256",
          "name": "amountReceivedLD",
          "type": "uint256"
        }
      ],
      "name": "OFTSent",
      "type": "event"
    },
    {
      "anonymous": false,
      "inputs": [
        {
          "indexed": true,
          "internalType": "uint32",
          "name": "dstEid",
          "type": "uint32"
        },
        {
          "components": [
            {
              "internalType": "uint256",
              "name": "capacity",
              "type": "uint256"
            },
            {
              "internalType": "uint256",
              "name": "refillPerSecond",
              "type": "uint256"
            }
          ],
          "indexed": false,
          "internalType": "struct WorkerTypes.RateLimitConfig",
          "name": "config",
          "type": "tuple"
        }
      ],
      "name": "OutboundRateLimitSet",
      "type": "event"
    },
    {
      "anonymous": false,
      "inputs": [
        {
          "indexed": true,
          "internalType": "address",
          "name": "previousOwner",
          "type": "address"
        },
        {
          "indexed": true,
          "internalType": "address",
          "name": "newOwner",
          "type": "address"
        }
      ],
      "name": "OwnershipTransferred",
      "type": "event"
    },
    {
      "anonymous": false,
      "inputs": [
        {
          "indexed": false,
          "internalType": "uint32",
          "name": "eid",
          "type": "uint32"
        },
        {
          "indexed": false,
          "internalType": "bytes32",
          "name": "peer",
          "type": "bytes32"
        }
      ],
      "name": "PeerSet",
      "type": "event"
    },
    {
      "anonymous": false,
      "inputs": [
        {
          "indexed": false,
          "internalType": "address",
          "name": "preCrimeAddress",
          "type": "address"
        }
      ],
      "name": "PreCrimeSet",
      "type": "event"
    },
    {
      "anonymous": false,
      "inputs": [
        {
          "indexed": true,
          "internalType": "uint32",
          "name": "srcEid",
          "type": "uint32"
        },
        {
          "indexed": false,
          "internalType": "bool",
          "name": "paused",
          "type": "bool"
        }
      ],
      "name": "ReceivePausedSet",
      "type": "event"
    },
    {
      "anonymous": false,
      "inputs": [
        {
          "indexed": true,
          "internalType": "uint32",
          "name": "dstEid",
          "type": "uint32"
        },
        {
          "indexed": false,
          "internalType": "bool",
          "name": "paused",
          "type": "bool"
        }
      ],
      "name": "SendPausedSet",
      "type": "event"
    },
    {
      "anonymous": false,
      "inputs": [
        {
          "indexed": true,
          "internalType": "address",
          "name": "from",
          "type": "address"
        },
        {
          "indexed": true,
          "internalType": "address",
          "name": "to",
          "type": "address"
        },
        {
          "indexed": false,
          "internalType": "uint256",
          "name": "value",
          "type": "uint256"
        }
      ],
      "name": "Transfer",
      "type": "event"
    },
    {
      "inputs": [],
      "name": "SEND",
      "outputs": [
        {
          "internalType": "uint16",
          "name": "",
          "type": "uint16"
        }
      ],
      "stateMutability": "view",
      "type": "function"
    },
    {
      "inputs": [],
      "name": "SEND_AND_CALL",
      "outputs": [
        {
          "internalType": "uint16",
          "name": "",
          "type": "uint16"
        }
      ],
      "stateMutability": "view",
      "type": "function"
    },
    {
      "inputs": [
        {
          "components": [
            {
              "internalType": "uint32",
              "name": "srcEid",
              "type": "uint32"
            },
            {
              "internalType": "bytes32",
              "name": "sender",
              "type": "bytes32"
            },
            {
              "internalType": "uint64",
              "name": "nonce",
              "type": "uint64"
            }
          ],
          "internalType": "struct Origin",
          "name": "origin",
          "type": "tuple"
        }
      ],
      "name": "allowInitializePath",
      "outputs": [
        {
          "internalType": "bool",
          "name": "",
          "type": "bool"
        }
      ],
      "stateMutability": "view",
      "type": "function"
    },
    {
      "inputs": [
        {
          "internalType": "address",
          "name": "owner",
          "type": "address"
        },
        {
          "internalType": "address",
          "name": "spender",
          "type": "address"
        }
      ],
      "name": "allowance",
      "outputs": [
        {
          "internalType": "uint256",
          "name": "",
          "type": "uint256"
        }
      ],
      "stateMutability": "view",
      "type": "function"
    },
    {
      "inputs": [],
      "name": "approvalRequired",
      "outputs": [
        {
          "internalType": "bool",
          "name": "",
          "type": "bool"
        }
      ],
      "stateMutability": "pure",
      "type": "function"
    },
    {
      "inputs": [
        {
          "internalType": "address",
          "name": "spender",
          "type": "address"
        },
        {
          "internalType": "uint256",
          "name": "value",
          "type": "uint256"
        }
      ],
      "name": "approve",
      "outputs": [
        {
          "internalType": "bool",
          "name": "",
          "type": "bool"
        }
      ],
      "stateMutability": "nonpayable",
      "type": "function"
    },
    {
      "inputs": [
        {
          "internalType": "address",
          "name": "account",
          "type": "address"
        }
      ],
      "name": "balanceOf",
      "outputs": [
        {
          "internalType": "uint256",
          "name": "",
          "type": "uint256"
        }
      ],
      "stateMutability": "view",
      "type": "function"
    },
    {
      "inputs": [
        {
          "internalType": "uint32",
          "name": "_eid",
          "type": "uint32"
        },
        {
          "internalType": "uint16",
          "name": "_msgType",
          "type": "uint16"
        },
        {
          "internalType": "bytes",
          "name": "_extraOptions",
          "type": "bytes"
        }
      ],
      "name": "combineOptions",
      "outputs": [
        {
          "internalType": "bytes",
          "name": "",
          "type": "bytes"
        }
      ],
      "stateMutability": "view",
      "type": "function"
    },
    {
      "inputs": [],
      "name": "decimalConversionRate",
      "outputs": [
        {
          "internalType": "uint256",
          "name": "",
          "type": "uint256"
        }
      ],
      "stateMutability": "view",
      "type": "function"
    },
    {
      "inputs": [],
      "name": "decimals",
      "outputs": [
        {
          "internalType": "uint8",
          "name": "",
          "type": "uint8"
        }
      ],
      "stateMutability": "view",
      "type": "function"
    },
    {
      "inputs": [],
      "name": "endpoint",
      "outputs": [
        {
          "internalType": "contract ILayerZeroEndpointV2",
          "name": "",
          "type": "address"
        }
      ],
      "stateMutability": "view",
      "type": "function"
    },
    {
      "inputs": [
        {
          "internalType": "uint32",
          "name": "eid",
          "type": "uint32"
        },
        {
          "internalType": "uint16",
          "name": "msgType",
          "type": "uint16"
        }
      ],
      "name": "enforcedOptions",
      "outputs": [
        {
          "internalType": "bytes",
          "name": "enforcedOption",
          "type": "bytes"
        }
      ],
      "stateMutability": "view",
      "type": "function"
    },
    {
      "inputs": [
        {
          "components": [
            {
              "internalType": "uint32",
              "name": "srcEid",
              "type": "uint32"
            },
            {
              "internalType": "bytes32",
              "name": "sender",
              "type": "bytes32"
            },
            {
              "internalType": "uint64",
              "name": "nonce",
              "type": "uint64"
            }
          ],
          "internalType": "struct Origin",
          "name": "",
          "type": "tuple"
        },
        {
          "internalType": "bytes",
          "name": "",
          "type": "bytes"
        },
        {
          "internalType": "address",
          "name": "_sender",
          "type": "address"
        }
      ],
      "name": "isComposeMsgSender",
      "outputs": [
        {
          "internalType": "bool",
          "name": "",
          "type": "bool"
        }
      ],
      "stateMutability": "view",
      "type": "function"
    },
    {
      "inputs": [
        {
          "internalType": "uint32",
          "name": "_eid",
          "type": "uint32"
        },
        {
          "internalType": "bytes32",
          "name": "_peer",
          "type": "bytes32"
        }
      ],
      "name": "isPeer",
      "outputs": [
        {
          "internalType": "bool",
          "name": "",
          "type": "bool"
        }
      ],
      "stateMutability": "view",
      "type": "function"
    },
    {
      "inputs": [
        {
          "components": [
            {
              "internalType": "uint32",
              "name": "srcEid",
              "type": "uint32"
            },
            {
              "internalType": "bytes32",
              "name": "sender",
              "type": "bytes32"
            },
            {
              "internalType": "uint64",
              "name": "nonce",
              "type": "uint64"
            }
          ],
          "internalType": "struct Origin",
          "name": "_origin",
          "type": "tuple"
        },
        {
          "internalType": "bytes32",
          "name": "_guid",
          "type": "bytes32"
        },
        {
          "internalType": "bytes",
          "name": "_message",
          "type": "bytes"
        },
        {
          "internalType": "address",
          "name": "_executor",
          "type": "address"
        },
        {
          "internalType": "bytes",
          "name": "_extraData",
          "type": "bytes"
        }
      ],
      "name": "lzReceive",
      "outputs": [],
      "stateMutability": "payable",
      "type": "function"
    },
    {
      "inputs": [
        {
          "components": [
            {
              "components": [
                {
                  "internalType": "uint32",
                  "name": "srcEid",
                  "type": "uint32"
                },
                {
                  "internalType": "bytes32",
                  "name": "sender",
                  "type": "bytes32"
                },
                {
                  "internalType": "uint64",
                  "name": "nonce",
                  "type": "uint64"
                }
              ],
              "internalType": "struct Origin",
              "name": "origin",
              "type": "tuple"
            },
            {
              "internalType": "uint32",
              "name": "dstEid",
              "type": "uint32"
            },
            {
              "internalType": "address",
              "name": "receiver",
              "type": "address"
            },
            {
              "internalType": "bytes32",
              "name": "guid",
              "type": "bytes32"
            },
            {
              "internalType": "uint256",
              "name": "value",
              "type": "uint256"
            },
            {
              "internalType": "address",
              "name": "executor",
              "type": "address"
            },
            {
              "internalType": "bytes",
              "name": "message",
              "type": "bytes"
            },
            {
              "internalType": "bytes",
              "name": "extraData",
              "type": "bytes"
            }
          ],
          "internalType": "struct InboundPacket[]",
          "name": "_packets",
          "type": "tuple[]"
        }
      ],
      "name": "lzReceiveAndRevert",
      "outputs": [],
      "stateMutability": "payable",
      "type": "function"
    },
    {
      "inputs": [
        {
          "components": [
            {
              "internalType": "uint32",
              "name": "srcEid",
              "type": "uint32"
            },
            {
              "internalType": "bytes32",
              "name": "sender",
              "type": "bytes32"
            },
            {
              "internalType": "uint64",
              "name": "nonce",
              "type": "uint64"
            }
          ],
          "internalType": "struct Origin",
          "name": "_origin",
          "type": "tuple"
        },
        {
          "internalType": "bytes32",
          "name": "_guid",
          "type": "bytes32"
        },
        {
          "internalType": "bytes",
          "name": "_message",
          "type": "bytes"
        },
        {
          "internalType": "address",
          "name": "_executor",
          "type": "address"
        },
        {
          "internalType": "bytes",
          "name": "_extraData",
          "type": "bytes"
        }
      ],
      "name": "lzReceiveSimulate",
      "outputs": [],
      "stateMutability": "payable",
      "type": "function"
    },
    {
      "inputs": [],
      "name": "msgInspector",
      "outputs": [
        {
          "internalType": "address",
          "name": "",
          "type": "address"
        }
      ],
      "stateMutability": "view",
      "type": "function"
    },
    {
      "inputs": [],
      "name": "name",
      "outputs": [
        {
          "internalType": "string",
          "name": "",
          "type": "string"
        }
      ],
      "stateMutability": "view",
      "type": "function"
    },
    {
      "inputs": [
        {
          "internalType": "uint32",
          "name": "",
          "type": "uint32"
        },
        {
          "internalType": "bytes32",
          "name": "",
          "type": "bytes32"
        }
      ],
      "name": "nextNonce",
      "outputs": [
        {
          "internalType": "uint64",
          "name": "nonce",
          "type": "uint64"
        }
      ],
      "stateMutability": "view",
      "type": "function"
    },
    {
      "inputs": [],
      "name": "oApp",
      "outputs": [
        {
          "internalType": "address",
          "name": "",
          "type": "address"
        }
      ],
      "stateMutability": "view",
      "type": "function"
    },
    {
      "inputs": [],
      "name": "oAppVersion",
      "outputs": [
        {
          "internalType": "uint64",
          "name": "senderVersion",
          "type": "uint64"
        },
        {
          "internalType": "uint64",
          "name": "receiverVersion",
          "type": "uint64"
        }
      ],
      "stateMutability": "pure",
      "type": "function"
    },
    {
      "inputs": [],
      "name": "oftVersion",
      "outputs": [
        {
          "internalType": "bytes4",
          "name": "interfaceId",
          "type": "bytes4"
        },
        {
          "internalType": "uint64",
          "name": "version",
          "type": "uint64"
        }
      ],
      "stateMutability": "pure",
      "type": "function"
    },
    {
      "inputs": [
        {
          "internalType": "uint32",
          "name": "dstEid",
          "type": "uint32"
        }
      ],
      "name": "outboundRateLimitConfig",
      "outputs": [
        {
          "internalType": "uint256",
          "name": "capacity",
          "type": "uint256"
        },
        {
          "internalType": "uint256",
          "name": "refillPerSecond",
          "type": "uint256"
        }
      ],
      "stateMutability": "view",
      "type": "function"
    },
    {
      "inputs": [
        {
          "internalType": "uint32",
          "name": "dstEid",
          "type": "uint32"
        }
      ],
      "name": "outboundRateLimitConfigured",
      "outputs": [
        {
          "internalType": "bool",
          "name": "configured",
          "type": "bool"
        }
      ],
      "stateMutability": "view",
      "type": "function"
    },
    {
      "inputs": [
        {
          "internalType": "uint32",
          "name": "dstEid",
          "type": "uint32"
        }
      ],
      "name": "outboundRateLimitState",
      "outputs": [
        {
          "internalType": "uint256",
          "name": "tokens",
          "type": "uint256"
        },
        {
          "internalType": "uint64",
          "name": "updatedAt",
          "type": "uint64"
        }
      ],
      "stateMutability": "view",
      "type": "function"
    },
    {
      "inputs": [],
      "name": "owner",
      "outputs": [
        {
          "internalType": "address",
          "name": "",
          "type": "address"
        }
      ],
      "stateMutability": "view",
      "type": "function"
    },
    {
      "inputs": [
        {
          "internalType": "uint32",
          "name": "srcEid",
          "type": "uint32"
        },
        {
          "internalType": "bool",
          "name": "paused",
          "type": "bool"
        }
      ],
      "name": "pauseReceive",
      "outputs": [],
      "stateMutability": "nonpayable",
      "type": "function"
    },
    {
      "inputs": [
        {
          "internalType": "uint32",
          "name": "dstEid",
          "type": "uint32"
        },
        {
          "internalType": "bool",
          "name": "paused",
          "type": "bool"
        }
      ],
      "name": "pauseSend",
      "outputs": [],
      "stateMutability": "nonpayable",
      "type": "function"
    },
    {
      "inputs": [
        {
          "internalType": "uint32",
          "name": "eid",
          "type": "uint32"
        }
      ],
      "name": "peers",
      "outputs": [
        {
          "internalType": "bytes32",
          "name": "peer",
          "type": "bytes32"
        }
      ],
      "stateMutability": "view",
      "type": "function"
    },
    {
      "inputs": [],
      "name": "preCrime",
      "outputs": [
        {
          "internalType": "address",
          "name": "",
          "type": "address"
        }
      ],
      "stateMutability": "view",
      "type": "function"
    },
    {
      "inputs": [
        {
          "components": [
            {
              "internalType": "uint32",
              "name": "dstEid",
              "type": "uint32"
            },
            {
              "internalType": "bytes32",
              "name": "to",
              "type": "bytes32"
            },
            {
              "internalType": "uint256",
              "name": "amountLD",
              "type": "uint256"
            },
            {
              "internalType": "uint256",
              "name": "minAmountLD",
              "type": "uint256"
            },
            {
              "internalType": "bytes",
              "name": "extraOptions",
              "type": "bytes"
            },
            {
              "internalType": "bytes",
              "name": "composeMsg",
              "type": "bytes"
            },
            {
              "internalType": "bytes",
              "name": "oftCmd",
              "type": "bytes"
            }
          ],
          "internalType": "struct SendParam",
          "name": "_sendParam",
          "type": "tuple"
        }
      ],
      "name": "quoteOFT",
      "outputs": [
        {
          "components": [
            {
              "internalType": "uint256",
              "name": "minAmountLD",
              "type": "uint256"
            },
            {
              "internalType": "uint256",
              "name": "maxAmountLD",
              "type": "uint256"
            }
          ],
          "internalType": "struct OFTLimit",
          "name": "oftLimit",
          "type": "tuple"
        },
        {
          "components": [
            {
              "internalType": "int256",
              "name": "feeAmountLD",
              "type": "int256"
            },
            {
              "internalType": "string",
              "name": "description",
              "type": "string"
            }
          ],
          "internalType": "struct OFTFeeDetail[]",
          "name": "oftFeeDetails",
          "type": "tuple[]"
        },
        {
          "components": [
            {
              "internalType": "uint256",
              "name": "amountSentLD",
              "type": "uint256"
            },
            {
              "internalType": "uint256",
              "name": "amountReceivedLD",
              "type": "uint256"
            }
          ],
          "internalType": "struct OFTReceipt",
          "name": "oftReceipt",
          "type": "tuple"
        }
      ],
      "stateMutability": "view",
      "type": "function"
    },
    {
      "inputs": [
        {
          "components": [
            {
              "internalType": "uint32",
              "name": "dstEid",
              "type": "uint32"
            },
            {
              "internalType": "bytes32",
              "name": "to",
              "type": "bytes32"
            },
            {
              "internalType": "uint256",
              "name": "amountLD",
              "type": "uint256"
            },
            {
              "internalType": "uint256",
              "name": "minAmountLD",
              "type": "uint256"
            },
            {
              "internalType": "bytes",
              "name": "extraOptions",
              "type": "bytes"
            },
            {
              "internalType": "bytes",
              "name": "composeMsg",
              "type": "bytes"
            },
            {
              "internalType": "bytes",
              "name": "oftCmd",
              "type": "bytes"
            }
          ],
          "internalType": "struct SendParam",
          "name": "_sendParam",
          "type": "tuple"
        },
        {
          "internalType": "bool",
          "name": "_payInLzToken",
          "type": "bool"
        }
      ],
      "name": "quoteSend",
      "outputs": [
        {
          "components": [
            {
              "internalType": "uint256",
              "name": "nativeFee",
              "type": "uint256"
            },
            {
              "internalType": "uint256",
              "name": "lzTokenFee",
              "type": "uint256"
            }
          ],
          "internalType": "struct MessagingFee",
          "name": "msgFee",
          "type": "tuple"
        }
      ],
      "stateMutability": "view",
      "type": "function"
    },
    {
      "inputs": [
        {
          "internalType": "uint32",
          "name": "srcEid",
          "type": "uint32"
        }
      ],
      "name": "receivePaused",
      "outputs": [
        {
          "internalType": "bool",
          "name": "paused",
          "type": "bool"
        }
      ],
      "stateMutability": "view",
      "type": "function"
    },
    {
      "inputs": [],
      "name": "renounceOwnership",
      "outputs": [],
      "stateMutability": "nonpayable",
      "type": "function"
    },
    {
      "inputs": [
        {
          "components": [
            {
              "internalType": "uint32",
              "name": "dstEid",
              "type": "uint32"
            },
            {
              "internalType": "bytes32",
              "name": "to",
              "type": "bytes32"
            },
            {
              "internalType": "uint256",
              "name": "amountLD",
              "type": "uint256"
            },
            {
              "internalType": "uint256",
              "name": "minAmountLD",
              "type": "uint256"
            },
            {
              "internalType": "bytes",
              "name": "extraOptions",
              "type": "bytes"
            },
            {
              "internalType": "bytes",
              "name": "composeMsg",
              "type": "bytes"
            },
            {
              "internalType": "bytes",
              "name": "oftCmd",
              "type": "bytes"
            }
          ],
          "internalType": "struct SendParam",
          "name": "_sendParam",
          "type": "tuple"
        },
        {
          "components": [
            {
              "internalType": "uint256",
              "name": "nativeFee",
              "type": "uint256"
            },
            {
              "internalType": "uint256",
              "name": "lzTokenFee",
              "type": "uint256"
            }
          ],
          "internalType": "struct MessagingFee",
          "name": "_fee",
          "type": "tuple"
        },
        {
          "internalType": "address",
          "name": "_refundAddress",
          "type": "address"
        }
      ],
      "name": "send",
      "outputs": [
        {
          "components": [
            {
              "internalType": "bytes32",
              "name": "guid",
              "type": "bytes32"
            },
            {
              "internalType": "uint64",
              "name": "nonce",
              "type": "uint64"
            },
            {
              "components": [
                {
                  "internalType": "uint256",
                  "name": "nativeFee",
                  "type": "uint256"
                },
                {
                  "internalType": "uint256",
                  "name": "lzTokenFee",
                  "type": "uint256"
                }
              ],
              "internalType": "struct MessagingFee",
              "name": "fee",
              "type": "tuple"
            }
          ],
          "internalType": "struct MessagingReceipt",
          "name": "msgReceipt",
          "type": "tuple"
        },
        {
          "components": [
            {
              "internalType": "uint256",
              "name": "amountSentLD",
              "type": "uint256"
            },
            {
              "internalType": "uint256",
              "name": "amountReceivedLD",
              "type": "uint256"
            }
          ],
          "internalType": "struct OFTReceipt",
          "name": "oftReceipt",
          "type": "tuple"
        }
      ],
      "stateMutability": "payable",
      "type": "function"
    },
    {
      "inputs": [
        {
          "internalType": "uint32",
          "name": "dstEid",
          "type": "uint32"
        }
      ],
      "name": "sendPaused",
      "outputs": [
        {
          "internalType": "bool",
          "name": "paused",
          "type": "bool"
        }
      ],
      "stateMutability": "view",
      "type": "function"
    },
    {
      "inputs": [
        {
          "internalType": "address",
          "name": "_delegate",
          "type": "address"
        }
      ],
      "name": "setDelegate",
      "outputs": [],
      "stateMutability": "nonpayable",
      "type": "function"
    },
    {
      "inputs": [
        {
          "components": [
            {
              "internalType": "uint32",
              "name": "eid",
              "type": "uint32"
            },
            {
              "internalType": "uint16",
              "name": "msgType",
              "type": "uint16"
            },
            {
              "internalType": "bytes",
              "name": "options",
              "type": "bytes"
            }
          ],
          "internalType": "struct EnforcedOptionParam[]",
          "name": "_enforcedOptions",
          "type": "tuple[]"
        }
      ],
      "name": "setEnforcedOptions",
      "outputs": [],
      "stateMutability": "nonpayable",
      "type": "function"
    },
    {
      "inputs": [
        {
          "internalType": "address",
          "name": "_msgInspector",
          "type": "address"
        }
      ],
      "name": "setMsgInspector",
      "outputs": [],
      "stateMutability": "nonpayable",
      "type": "function"
    },
    {
      "inputs": [
        {
          "internalType": "uint32",
          "name": "dstEid",
          "type": "uint32"
        },
        {
          "components": [
            {
              "internalType": "uint256",
              "name": "capacity",
              "type": "uint256"
            },
            {
              "internalType": "uint256",
              "name": "refillPerSecond",
              "type": "uint256"
            }
          ],
          "internalType": "struct WorkerTypes.RateLimitConfig",
          "name": "config",
          "type": "tuple"
        }
      ],
      "name": "setOutboundRateLimit",
      "outputs": [],
      "stateMutability": "nonpayable",
      "type": "function"
    },
    {
      "inputs": [
        {
          "internalType": "uint32",
          "name": "_eid",
          "type": "uint32"
        },
        {
          "internalType": "bytes32",
          "name": "_peer",
          "type": "bytes32"
        }
      ],
      "name": "setPeer",
      "outputs": [],
      "stateMutability": "nonpayable",
      "type": "function"
    },
    {
      "inputs": [
        {
          "internalType": "address",
          "name": "_preCrime",
          "type": "address"
        }
      ],
      "name": "setPreCrime",
      "outputs": [],
      "stateMutability": "nonpayable",
      "type": "function"
    },
    {
      "inputs": [],
      "name": "sharedDecimals",
      "outputs": [
        {
          "internalType": "uint8",
          "name": "",
          "type": "uint8"
        }
      ],
      "stateMutability": "view",
      "type": "function"
    },
    {
      "inputs": [],
      "name": "symbol",
      "outputs": [
        {
          "internalType": "string",
          "name": "",
          "type": "string"
        }
      ],
      "stateMutability": "view",
      "type": "function"
    },
    {
      "inputs": [],
      "name": "token",
      "outputs": [
        {
          "internalType": "address",
          "name": "",
          "type": "address"
        }
      ],
      "stateMutability": "view",
      "type": "function"
    },
    {
      "inputs": [],
      "name": "totalSupply",
      "outputs": [
        {
          "internalType": "uint256",
          "name": "",
          "type": "uint256"
        }
      ],
      "stateMutability": "view",
      "type": "function"
    },
    {
      "inputs": [
        {
          "internalType": "address",
          "name": "to",
          "type": "address"
        },
        {
          "internalType": "uint256",
          "name": "value",
          "type": "uint256"
        }
      ],
      "name": "transfer",
      "outputs": [
        {
          "internalType": "bool",
          "name": "",
          "type": "bool"
        }
      ],
      "stateMutability": "nonpayable",
      "type": "function"
    },
    {
      "inputs": [
        {
          "internalType": "address",
          "name": "from",
          "type": "address"
        },
        {
          "internalType": "address",
          "name": "to",
          "type": "address"
        },
        {
          "internalType": "uint256",
          "name": "value",
          "type": "uint256"
        }
      ],
      "name": "transferFrom",
      "outputs": [
        {
          "internalType": "bool",
          "name": "",
          "type": "bool"
        }
      ],
      "stateMutability": "nonpayable",
      "type": "function"
    },
    {
      "inputs": [
        {
          "internalType": "address",
          "name": "newOwner",
          "type": "address"
        }
      ],
      "name": "transferOwnership",
      "outputs": [],
      "stateMutability": "nonpayable",
      "type": "function"
    }
  ],
  "bytecode": "0x60c08060405234610535575f61387b803803809161001d828661054c565b843982019060c0838303126105355782516001600160401b0381116105355782610048918501610583565b602084015190926001600160401b03821161053557610068918501610583565b92610075604082016105d8565b92610082606083016105d8565b9360a0610091608085016105d8565b930151946001600160a01b03168015610539575f80546001600160a01b0319811683178255604051939183916001600160a01b0316907f8be0079c531659141344cd1fd0a4f28419497f9722a3daafe3b4186f6b6457e09080a36001600160a01b03166080819052803b15610535576024835f8193819563ca5eb5e160e01b845260048401525af1801561052a57610515575b5064e8d4a5100060a0528051906001600160401b03821161050157600854600181811c911680156104f7575b60208210146104e3579081601f84931161046c575b50602090601f83116001146104085785926103fd575b50508160011b915f199060031b1c1916176008555b83516001600160401b0381116103e957600954600181811c911680156103df575b60208210146103cb57601f811161035c575b50602094601f82116001146102f95794839495829394926102ee575b50508160011b915f199060031b1c1916176009555b82610261575b60405161328e90816105ed823960805181818161091f01528181610d350152818161106301528181611ae40152818161232b01528181612af30152612f7d015260a051818181610c64015281816113210152818161219e01528181612580015261308e0152f35b6001600160a01b03169182156102da576007548181018091116102c6577fddf252ad1be2c89b69c2b068fc378daa952ba7f163c4a11628f55a4df523b3ef916020916007558484526005825260408420818154019055604051908152a35f80806101fa565b634e487b7160e01b83526011600452602483fd5b63ec442f0560e01b82526004829052602482fd5b015190505f806101df565b601f198216956009855280852091855b8881106103445750836001959697981061032c575b505050811b016009556101f4565b01515f1960f88460031b161c191690555f808061031e565b91926020600181928685015181550194019201610309565b818111156101c35760098452601f820160051c7f6e1540171b6c0c960b71a7020d9f60077f6af931a8bbf590da0223dacf75c7af602084106103c3575b81601f9101920160051c0390845b8281106103b55750506101c3565b8086600192840155016103a7565b859150610399565b634e487b7160e01b84526022600452602484fd5b90607f16906101b1565b634e487b7160e01b83526041600452602483fd5b015190505f8061017b565b600886528186209250601f198416865b818110610454575090846001959493921061043c575b505050811b01600855610190565b01515f1960f88460031b161c191690555f808061042e565b92936020600181928786015181550195019301610418565b828111156101655760088652909150601f830160051c7ff3f7a9fe364faab93b216da50a3214154f22a0a2b415b23a84c8169e8b636ee3602085106104db575b849392601f0160051c8290039101865b8281106104ca575050610165565b8082018890558594506001016104bc565b8691506104ac565b634e487b7160e01b85526022600452602485fd5b90607f1690610150565b634e487b7160e01b84526041600452602484fd5b6105229193505f9061054c565b5f915f610124565b6040513d5f823e3d90fd5b5f80fd5b631e4fbdf760e01b5f525f60045260245ffd5b601f909101601f19168101906001600160401b0382119082101761056f57604052565b634e487b7160e01b5f52604160045260245ffd5b81601f82011215610535578051906001600160401b03821161056f57604051926105b7601f8401601f19166020018561054c565b8284526020838301011161053557815f9260208093018386015e8301015290565b51906001600160a01b03821682036105355756fe60806040526004361015610011575f80fd5b5f3560e01c8063020e17601461032f57806306fdde031461032a578063095ea7b3146103255780630a382941146103205780630d35b4151461031b5780630e53659714610316578063111ecdad1461031157806313137d651461030c578063134d4f2514610307578063156a0d0f1461030257806317442b70146102fd57806318160ddd146102f85780631f5e1334146102f357806323b872dd146102ee578063313ce567146102e95780633400288b146102e45780633b6f743b146102df5780633c4ec101146102da57806352ae2879146102495780635535d461146102d55780635a0dfe4d146102d05780635e280f11146102cb5780636fc1b31e146102c657806370a08231146102c1578063715018a6146102bc5780637d25a05e146102b757806382413eac146102b2578063857749b0146102ad5780638da5cb5b146102a857806395d89b41146102a3578063963efcaa1461029e5780639e4a8622146102995780639f68b96414610294578063a3f6a6a51461028f578063a9059cbb1461028a578063b731ea0a14610285578063b98bd07014610280578063bb0b6a531461027b578063bc70b35414610276578063bd815db014610271578063bf81dfef1461026c578063c7c7f5b314610267578063ca5eb5e114610262578063d045a0dc1461025d578063d424388514610258578063dd62ed3e14610253578063f2fde38b1461024e578063fc0c546a14610249578063feb9a80a146102445763ff7bd03d1461023f575f80fd5b611d77565b611d35565b610e1d565b611c88565b611c27565b611bae565b611b66565b611ab4565b6118f6565b6117b2565b6115fc565b6115a7565b61156e565b611489565b61140f565b6113da565b61139c565b611382565b611344565b61130a565b611265565b611240565b611225565b6111c6565b6111a0565b61113c565b611100565b611087565b611044565b610ffe565b610f83565b610dd1565b610bff565b610b7a565b610b5f565b610a92565b610a77565b610a5a565b610a39565b6109f9565b6109de565b610904565b610830565b6107ce565b6106eb565b6105d0565b6104b1565b6103c6565b610346565b63ffffffff81160361034257565b5f80fd5b346103425760203660031901126103425763ffffffff60043561036881610334565b165f52600b602052602060ff60405f2054166040519015158152f35b5f91031261034257565b805180835260209291819084018484015e5f828201840152601f01601f1916010190565b9060206103c392818152019061038e565b90565b34610342575f366003190112610342576040515f6008546103e681610e57565b808452906001811690811561047c575060011461041e575b61041a8361040e81850382610f61565b604051918291826103b2565b0390f35b60085f9081527ff3f7a9fe364faab93b216da50a3214154f22a0a2b415b23a84c8169e8b636ee3939250905b8082106104625750909150810160200161040e6103fe565b91926001816020925483858801015201910190929161044a565b60ff191660208086019190915291151560051b8401909101915061040e90506103fe565b6001600160a01b0381160361034257565b34610342576040366003190112610342576004356104ce816104a0565b6024353315610575576001600160a01b0382169182156105495761050f8291335f52600660205260405f20906001600160a01b03165f5260205260405f2090565b5560405190815233907f8c5be1e5ebec7d5bd14f71427d1e84f3dd0314c0f7b2291e5b200ac8c7c3b92590602090a3602060405160018152f35b7f94280d62000000000000000000000000000000000000000000000000000000005f525f60045260245ffd5b7fe602df05000000000000000000000000000000000000000000000000000000005f525f60045260245ffd5b8015150361034257565b6040906003190112610342576004356105c381610334565b906024356103c3816105a1565b346103425763ffffffff7f5b409cb3f39f04bb979a7cd124f8c3ee434d8a2dc5c7228d533067b6ae6102fb6020610606366105ab565b9390610610612156565b1692835f52600b82526106328160405f209060ff801983541691151516179055565b6040519015158152a2005b908160e09103126103425790565b939291906106678560a081019260208091805184520151910152565b60a06040860152815180915260c0850190602060c08260051b8801019301915f905b8282106106af57505050509060606106ad9294019060208091805184520151910152565b565b909192936020806106dd60019360bf198c82030186526040838a51805184520151918185820152019061038e565b960192019201909291610689565b346103425760203660031901126103425760043567ffffffffffffffff81116103425761071c90369060040161063d565b610724611dda565b5061072d611dda565b5060405161073a81610f24565b5f815267ffffffffffffffff602082015260206040519261075b8285610f61565b5f8452601f1982015f5b8181106107ab5750509061078f61041a926040810135610789606083013592611e0a565b50612195565b9091610799611dbc565b9283528201526040519384938461064b565b83906040516107b981610f24565b5f815260608382015282828901015201610765565b346103425763ffffffff7f12bee9777b17b3a65c478719d44a700464cd1201a34d71821bd3d7e19cb1a80e6020610804366105ab565b939061080e612156565b1692835f52600a82526106328160405f209060ff801983541691151516179055565b34610342575f3660031901126103425760206001600160a01b0360045416604051908152f35b606090600319011261034257600490565b9181601f840112156103425782359167ffffffffffffffff8311610342576020838186019501011161034257565b90600319820160e0811261034257606013610342576004916064359160843567ffffffffffffffff811161034257826108d091600401610867565b9290929160a4356108e0816104a0565b9160c4359067ffffffffffffffff82116103425761090091600401610867565b9091565b61090d36610895565b94939093929192336001600160a01b037f000000000000000000000000000000000000000000000000000000000000000016036109b25786359661095088610334565b610959886121d1565b9760208201358099036109735750610971975061221a565b005b63ffffffff816109838b93610334565b7fc26bebcc000000000000000000000000000000000000000000000000000000005f521660045260245260445ffd5b7f91ac5e4f000000000000000000000000000000000000000000000000000000005f523360045260245ffd5b34610342575f36600319011261034257602060405160028152f35b34610342575f36600319011261034257604080517f02e49c2c00000000000000000000000000000000000000000000000000000000815260016020820152f35b34610342575f36600319011261034257604080516001815260026020820152f35b34610342575f366003190112610342576020600754604051908152f35b34610342575f36600319011261034257602060405160018152f35b3461034257606036600319011261034257600435610aaf816104a0565b602435610abb816104a0565b604435906001600160a01b0383165f526006602052610aee3360405f20906001600160a01b03165f5260205260405f2090565b54925f198410610b0f575b610b039350612429565b60405160018152602090f35b828410610b2b57610b2683610b0395033383612b5e565b610af9565b82847ffb8f41b2000000000000000000000000000000000000000000000000000000005f523360045260245260445260645ffd5b34610342575f36600319011261034257602060405160128152f35b34610342576040366003190112610342577f238399d427b947898edb290f5ff0f9109849b1c3ba196a42e35f00c50a54b98b600435610bb881610334565b60243590610bc4612156565b63ffffffff81165f5260016020528160405f2055610bfa604051928392836020909392919363ffffffff60408201951681520152565b0390a1005b346103425760403660031901126103425760043567ffffffffffffffff811161034257610c3090369060040161063d565b602435610c3c816105a1565b610c44611dda565b50813591606081013590610c8f6040820135610c5f86610334565b610c8a7f00000000000000000000000000000000000000000000000000000000000000008092612bb9565b612bd7565b91808310610dbb57610d29604086610cf587610cab8888612569565b90610cb585610334565b610cbd611dda565b50610cc7856121d1565b610cde610cd2611dcb565b63ffffffff9097168752565b602086015285850152606084015215156080830152565b8151809381927fddc28c580000000000000000000000000000000000000000000000000000000083523090600484016126eb565b03816001600160a01b037f0000000000000000000000000000000000000000000000000000000000000000165afa8015610db65761041a915f91610d87575b5060405191829182815181526020918201519181019190915260400190565b610da9915060403d604011610daf575b610da18183610f61565b8101906126d7565b82610d68565b503d610d97565b61209a565b826371c4efed60e01b5f5260045260245260445ffd5b346103425760203660031901126103425763ffffffff600435610df381610334565b165f52600e6020526040805f2067ffffffffffffffff600182549201541682519182526020820152f35b34610342575f366003190112610342576020604051308152f35b6024359061ffff8216820361034257565b359061ffff8216820361034257565b90600182811c92168015610e85575b6020831014610e7157565b634e487b7160e01b5f52602260045260245ffd5b91607f1691610e66565b5f9291815491610e9e83610e57565b8083529260018116908115610ef35750600114610eba57505050565b5f9081526020812093945091925b838310610ed9575060209250010190565b600181602092949394548385870101520191019190610ec8565b915050602093945060ff929192191683830152151560051b010190565b634e487b7160e01b5f52604160045260245ffd5b6040810190811067ffffffffffffffff821117610f4057604052565b610f10565b6060810190811067ffffffffffffffff821117610f4057604052565b90601f8019910116810190811067ffffffffffffffff821117610f4057604052565b346103425760403660031901126103425761041a610fe3610fea610fd7600435610fac81610334565b63ffffffff610fb9610e37565b91165f52600360205260405f209061ffff165f5260205260405f2090565b60405192838092610e8f565b0382610f61565b60405191829160208352602083019061038e565b3461034257604036600319011261034257602061103a60043561102081610334565b6024359063ffffffff165f52600160205260405f20541490565b6040519015158152f35b34610342575f3660031901126103425760206040516001600160a01b037f0000000000000000000000000000000000000000000000000000000000000000168152f35b34610342576020366003190112610342577ff0be4f1e87349231d80c36b33f9e8639658eeaf474014dee15a3e6a4d441419760206001600160a01b036004356110cf816104a0565b6110d7612156565b168073ffffffffffffffffffffffffffffffffffffffff196004541617600455604051908152a1005b34610342576020366003190112610342576001600160a01b03600435611125816104a0565b165f526005602052602060405f2054604051908152f35b34610342575f36600319011261034257611154612156565b5f6001600160a01b03815473ffffffffffffffffffffffffffffffffffffffff1981168355167f8be0079c531659141344cd1fd0a4f28419497f9722a3daafe3b4186f6b6457e08280a3005b34610342576040366003190112610342576111bc600435610334565b60206040515f8152f35b346103425760a0366003190112610342576111e036610856565b5060643567ffffffffffffffff811161034257611201903690600401610867565b50506020608435611211816104a0565b604051906001600160a01b03309116148152f35b34610342575f36600319011261034257602060405160068152f35b34610342575f3660031901126103425760206001600160a01b035f5416604051908152f35b34610342575f366003190112610342576040515f60095461128581610e57565b808452906001811690811561047c57506001146112ac5761041a8361040e81850382610f61565b60095f9081527f6e1540171b6c0c960b71a7020d9f60077f6af931a8bbf590da0223dacf75c7af939250905b8082106112f05750909150810160200161040e6103fe565b9192600181602092548385880101520191019092916112d8565b34610342575f3660031901126103425760206040517f00000000000000000000000000000000000000000000000000000000000000008152f35b346103425760203660031901126103425763ffffffff60043561136681610334565b165f52600c602052602060ff60405f2054166040519015158152f35b34610342575f3660031901126103425760206040515f8152f35b346103425760203660031901126103425763ffffffff6004356113be81610334565b165f52600a602052602060ff60405f2054166040519015158152f35b34610342576040366003190112610342576114046004356113fa816104a0565b6024359033612429565b602060405160018152f35b34610342575f3660031901126103425760206001600160a01b0360025416604051908152f35b9060206003198301126103425760043567ffffffffffffffff81116103425760040182601f820112156103425780359267ffffffffffffffff8411610342576020808301928560051b010111610342579190565b346103425761149736611435565b906114a0612156565b6114a982611df2565b906114b76040519283610f61565b828252602082019260051b8101903682116103425780935b8285106114df576109718461291a565b843567ffffffffffffffff811161034257820190606082360312610342576040519161150a83610f45565b803561151581610334565b835261152360208201610e48565b602084015260408101359067ffffffffffffffff821161034257019036601f830112156103425760209261155e849336908581359101611e30565b60408201528152019401936114cf565b346103425760203660031901126103425763ffffffff60043561159081610334565b165f526001602052602060405f2054604051908152f35b34610342576060366003190112610342576004356115c481610334565b6115cc610e37565b6044359067ffffffffffffffff82116103425761041a926115f4610fea933690600401610867565b929091611ef5565b61160536611435565b5f5b8181106116a6576040517f8e9e70990000000000000000000000000000000000000000000000000000000081525f81600481335afa8015610db657611680915f91611684575b506040519182917f8351eea7000000000000000000000000000000000000000000000000000000008352600483016103b2565b0390fd5b6116a091503d805f833e6116988183610f61565b8101906120a5565b8261164d565b6116b1818385611fab565b906116e16116dd6116c184611e0a565b60208501359063ffffffff165f52600160205260405f20541490565b1590565b6117985760c08201359160a08101356116fe610100830183611fd3565b94909161170d60e08501612006565b9361171c610120820182611fd3565b959095303b15610342575f96611762926040519a8b98899788977fd045a0dc00000000000000000000000000000000000000000000000000000000895260048901612022565b0391305af1918215610db65760019261177e575b505b01611607565b8061178c5f61179293610f61565b80610384565b5f611776565b60019150611778565b604090602319011261034257602490565b34610342576060366003190112610342576004356117cf81610334565b7ffb09a5c06f2990c5b9def55228ff597bea2c52e9ff28be311d02ea539ab05c3161189f6117fc366117a1565b611804612156565b61188261185e63ffffffff861695865f52600c60205260405f20600160ff19825416179055865f52600d60205261184a8460405f20906020600191803584550135910155565b63ffffffff165f52600e60205260405f2090565b82358155600101805467ffffffffffffffff19164267ffffffffffffffff16179055565b604051918291829190916020806040830194803584520135910152565b0390a2005b9160806106ad9294936118e5604060c08301978051845267ffffffffffffffff60208201511660208501520151604083019060208091805184520151910152565b019060208091805184520151910152565b60803660031901126103425760043567ffffffffffffffff81116103425761192290369060040161063d565b61192b366117a1565b60643590611938826104a0565b611940612108565b50611949611dda565b506060830135916040840135843561196081610334565b63ffffffff8116805f52600a60205260ff60405f205416611a89575090610c5f8161198a93612de8565b92808410611a7357503315611a47576119cc916119a78433612c31565b6119b18486612569565b906119c66119be88611e0a565b93369061212e565b92612a55565b906119d5611dbc565b928184528160208501527f85496b760a4b7f8d66384b9df21b381f5d1b1e79f229a47aaf4c232edc2fe59a611a35611a0e855193611e0a565b936040519181839233978460409194939263ffffffff606083019616825260208201520152565b0390a361041a604051928392836118a4565b7f96c6fd1e000000000000000000000000000000000000000000000000000000005f525f60045260245ffd5b836371c4efed60e01b5f5260045260245260445ffd5b7f1a139b34000000000000000000000000000000000000000000000000000000005f5260045260245ffd5b34610342575f602036600319011261034257600435611ad2816104a0565b611ada612156565b6001600160a01b037f00000000000000000000000000000000000000000000000000000000000000001690813b15610342576001600160a01b0360245f928360405195869485937fca5eb5e10000000000000000000000000000000000000000000000000000000085521660048401525af18015610db657611b5a575080f35b61097191505f90610f61565b611b6f36610895565b94939093929192303303611b86576109719661221a565b7f14d4a4e8000000000000000000000000000000000000000000000000000000005f5260045ffd5b34610342576020366003190112610342577fd48d879cef83a1c0bdda516f27b13ddb1b3f8bbac1c9e1511bb2a659c242776060206001600160a01b03600435611bf6816104a0565b611bfe612156565b168073ffffffffffffffffffffffffffffffffffffffff196002541617600255604051908152a1005b34610342576040366003190112610342576020611c7f600435611c49816104a0565b6001600160a01b0360243591611c5e836104a0565b165f526006835260405f20906001600160a01b03165f5260205260405f2090565b54604051908152f35b34610342576020366003190112610342576001600160a01b03600435611cad816104a0565b611cb5612156565b168015611d09576001600160a01b035f548273ffffffffffffffffffffffffffffffffffffffff198216175f55167f8be0079c531659141344cd1fd0a4f28419497f9722a3daafe3b4186f6b6457e05f80a3005b7f1e4fbdf7000000000000000000000000000000000000000000000000000000005f525f60045260245ffd5b346103425760203660031901126103425763ffffffff600435611d5781610334565b165f52600d6020526040805f206001815491015482519182526020820152f35b34610342576060366003190112610342576020611d9336610856565b63ffffffff8135611da381610334565b165f52600182528160405f205491013560405191148152f35b604051906106ad604083610f61565b604051906106ad60a083610f61565b60405190611de782610f24565b5f6020838281520152565b67ffffffffffffffff8111610f405760051b60200190565b356103c381610334565b67ffffffffffffffff8111610f4057601f01601f191660200190565b929192611e3c82611e14565b91611e4a6040519384610f61565b829481845281830111610342578281602093845f960137010152565b909291928360021161034257831161034257600201916001190190565b805191908290602001825e015f815290565b611eaf93926106ad92816040519687946020860190611e83565b918237015f815203601f198101845283610f61565b908060209392818452848401375f828201840152601f01601f1916010190565b9160206103c3938181520191611ec4565b610fd7610fe39263ffffffff611f269397959697165f52600360205260405f209061ffff165f5260205260405f2090565b805115611f89578315611f83576002841015611f5a575050611680604051928392639a6d49cd60e01b845260048401611ee4565b909280611f7d916103c394611f78611f73368484611e30565b6129dc565b611e66565b91611e95565b92509050565b5091906103c3913691611e30565b634e487b7160e01b5f52603260045260245ffd5b9190811015611fce5760051b8101359061013e1981360301821215610342570190565b611f97565b903590601e1981360301821215610342570180359067ffffffffffffffff82116103425760200191813603831361034257565b356103c3816104a0565b67ffffffffffffffff81160361034257565b926103c3979596946001600160a01b039367ffffffffffffffff60406120869563ffffffff813561205281610334565b168952602081013560208a0152013561206a81612010565b166040870152606086015260e0608086015260e0850191611ec4565b941660a082015260c0818503910152611ec4565b6040513d5f823e3d90fd5b6020818303126103425780519067ffffffffffffffff8211610342570181601f82011215610342578051906120d982611e14565b926120e76040519485610f61565b8284526020838301011161034257815f9260208093018386015e8301015290565b6040519061211582610f45565b815f81525f60208201526040612129611dda565b910152565b91908260409103126103425760405161214681610f24565b6020808294803584520135910152565b6001600160a01b035f5416330361216957565b7f118cdaa7000000000000000000000000000000000000000000000000000000005f523360045260245ffd5b6121c490610c8a7f00000000000000000000000000000000000000000000000000000000000000008092612bb9565b918291808410611a735750565b63ffffffff16805f52600160205260405f20549081156121ef575090565b7ff6ff4fb7000000000000000000000000000000000000000000000000000000005f5260045260245ffd5b92935093509350803561222c81610334565b63ffffffff811690815f52600b60205260ff60405f2054166123f55750506122636122578386613061565b6001600160a01b031690565b91612289612279612274838861306d565b61307f565b61228284611e0a565b50846130b4565b948590602883116122f5575b5050507fefed6d3500546b29533b128a29e3a94d70788727f0507505ac12eaf2e578fd9c916122f06122ce6001600160a01b0393611e0a565b956040519384931696836020909392919363ffffffff60408201951681520152565b0390a3565b90612320929161231a61230a60408701612bef565b9361231487611e0a565b9261313e565b9261315a565b916001600160a01b037f000000000000000000000000000000000000000000000000000000000000000016803b15610342576123915f949185926040519687809481937f7cb590120000000000000000000000000000000000000000000000000000000083528b8960048501612bf9565b03925af1928315610db6576122ce6001600160a01b03936122f0927fefed6d3500546b29533b128a29e3a94d70788727f0507505ac12eaf2e578fd9c966123e1575b509350829450869150612295565b8061178c5f6123ef93610f61565b5f6123d3565b6123fe90610334565b7f455b31fc000000000000000000000000000000000000000000000000000000005f5260045260245ffd5b916001600160a01b038316918215611a47576001600160a01b03811693841561250357612467816001600160a01b03165f52600560205260405f2090565b548381106124de57916124cc916124b4857fddf252ad1be2c89b69c2b068fc378daa952ba7f163c4a11628f55a4df523b3ef969503916001600160a01b03165f52600560205260405f2090565b556001600160a01b03165f52600560205260405f2090565b805482019055604051908152602090a3565b63391434e360e21b5f526001600160a01b03909116600452602452604482905260645ffd5b7fec442f05000000000000000000000000000000000000000000000000000000005f525f60045260245ffd5b9081602091031261034257516103c3816105a1565b909161255b6103c39360408452604084019061038e565b91602081840391015261038e565b90916125cf6125f5936125b26125a56020860135927f000000000000000000000000000000000000000000000000000000000000000090612bb9565b67ffffffffffffffff1690565b6125c96125c260a0870187611fd3565b3691611e30565b91612d1d565b93909283945f146126a7576002905b6115f46125ea82611e0a565b916080810190611fd3565b916126086004546001600160a01b031690565b836001600160a01b03821661261c57505050565b61266b926126356122576020946001600160a01b031690565b906040518095819482937f043a78eb00000000000000000000000000000000000000000000000000000000845260048401612544565b03915afa8015610db65761267c5750565b61269d9060203d6020116126a0575b6126958183610f61565b81019061252f565b50565b503d61268b565b6001906125de565b9190826040910312610342576040516126c781610f24565b6020808294805184520151910152565b90604082820312610342576103c3916126af565b906001600160a01b036020919493946040845263ffffffff81511660408501528281015160608501526080612747612731604084015160a08489015260e088019061038e565b6060840151878203603f190160a089015261038e565b910151151560c08501529416910152565b8051821015611fce5760209160051b010190565b919091601f831161277d575b505050565b81831161278957505050565b5f5260205f206020601f830160051c92106127c2575b81601f9101920160051c03905f5b82811015612778575f828201556001016127ad565b5f915061279f565b919091825167ffffffffffffffff8111610f40576127f2816127ec8454610e57565b8461276c565b6020601f82116001146128315781906128229394955f92612826575b50508160011b915f199060031b1c19161790565b9055565b015190505f8061280e565b601f19821690612844845f5260205f2090565b915f5b81811061287e57509583600195969710612866575b505050811b019055565b01515f1960f88460031b161c191690555f808061285c565b9192602060018192868b015181550194019201612847565b602081016020825282518091526040820191602060408360051b8301019401925f915b8383106128c857505050505090565b909192939460208061290b600193603f19868203018752606060408b5163ffffffff815116845261ffff868201511686850152015191816040820152019061038e565b970193019301919392906128b9565b5f5b81518110156129a5578061293f604061293760019486612758565b5101516129dc565b61299f604061294e8386612758565b51015163ffffffff6129608487612758565b5151165f52600360205261299a60405f2061298a6020612980878a612758565b51015161ffff1690565b61ffff165f5260205260405f2090565b6127ca565b0161291c565b506129d77fbe4864a8e820971c0247f5992e2da559595f7bf076a21cb5928d443d2a13b6749160405191829182612896565b0390a1565b600361ffff600283015116036129ef5750565b61168090604051918291639a6d49cd60e01b8352602060048401818152019061038e565b9060808282031261034257612a4d906040805193612a3085610f45565b805185526020810151612a4281612010565b6020860152016126af565b604082015290565b612ab260809492612ae79694612a69612108565b506020612a768651612f3d565b950191825180612b4f575b50612a8b856121d1565b9251151592612a9b610cd2611dcb565b602086015260408501526060840152151585830152565b6040518095819482937f2637a450000000000000000000000000000000000000000000000000000000008452600484016126eb565b03916001600160a01b037f0000000000000000000000000000000000000000000000000000000000000000165af1908115610db6575f91612b26575090565b6103c3915060803d608011612b48575b612b408183610f61565b810190612a13565b503d612b36565b612b5890612f73565b5f612a81565b6001600160a01b0316908115610575576001600160a01b0381161561054957612ba2915f52600660205260405f20906001600160a01b03165f5260205260405f2090565b55565b634e487b7160e01b5f52601160045260245ffd5b8115612bc3570490565b634e487b7160e01b5f52601260045260245ffd5b81810292918115918404141715612bea57565b612ba5565b356103c381612010565b6103c393926001600160a01b0360809316825260208201525f6040820152816060820152019061038e565b91908201809211612bea57565b6001600160a01b038116919082612c8e575090600754828101809111612bea575f927fddf252ad1be2c89b69c2b068fc378daa952ba7f163c4a11628f55a4df523b3ef916007555b600780548290039055604051908152602090a3565b612ca9816001600160a01b03165f52600560205260405f2090565b54828110612cfa57917fddf252ad1be2c89b69c2b068fc378daa952ba7f163c4a11628f55a4df523b3ef91612cf4825f969503916001600160a01b03165f52600560205260405f2090565b55612c79565b63391434e360e21b5f526001600160a01b0390911660045260245260445260645ffd5b82511580159390612d7f5790612d6e612d7c9277ffffffffffffffffffffffffffffffffffffffffffffffff19604051958694602086015260c01b1660408401523360488401526068830190611e83565b03601f198101835282610f61565b91565b509077ffffffffffffffffffffffffffffffffffffffffffffffff199060405192602084015260c01b16604082015260288152612d7c604882610f61565b90604051612dca81610f24565b602060018294805484520154910152565b91908203918211612bea57565b919091612e106116dd612e098363ffffffff165f52600c60205260405f2090565b5460ff1690565b612f3857612e34612e2f8263ffffffff165f52600d60205260405f2090565b612dbd565b90612e4d8163ffffffff165f52600e60205260405f2090565b90815490600183019367ffffffffffffffff612e71865467ffffffffffffffff1690565b1680421180612f2b575b612ef0575b5050818611612eb757506106ad9394612e9891612ddb565b9055805467ffffffffffffffff19164267ffffffffffffffff16179055565b7fb3cf2485000000000000000000000000000000000000000000000000000000005f5263ffffffff16600452602485905260445260645ffd5b92612f0d612f02612f13939542612ddb565b602086015190612bd7565b90612c24565b9151808311612f23575b80612e80565b91505f612f1d565b5060208201511515612e7b565b509050565b803403612f475790565b7f9f704120000000000000000000000000000000000000000000000000000000005f523460045260245ffd5b6001600160a01b037f000000000000000000000000000000000000000000000000000000000000000016906040517fe4fe1d94000000000000000000000000000000000000000000000000000000008152602081600481865afa8015610db6575f9061301f575b6001600160a01b03915016918215612ff7576106ad9233906131c6565b7f5373352a000000000000000000000000000000000000000000000000000000005f5260045ffd5b506020813d602011613059575b8161303960209383610f61565b81010312610342576001600160a01b039051613054816104a0565b612fda565b3d915061302c565b90602011610342573590565b90602811610342576020013560c01c90565b6103c39067ffffffffffffffff7f00000000000000000000000000000000000000000000000000000000000000009116612bd7565b6001600160a01b03811615613135575b6001600160a01b0381169081156125035760075490838201809211612bea57613101916007556001600160a01b03165f52600560205260405f2090565b8281540190555f7fddf252ad1be2c89b69c2b068fc378daa952ba7f163c4a11628f55a4df523b3ef6020604051858152a390565b5061dead6130c4565b9080602811610342576103c39136916027190190602801611e30565b9077ffffffffffffffffffffffffffffffffffffffffffffffff19936103c3937fffffffff00000000000000000000000000000000000000000000000000000000612d6e9360405197889660c01b16602087015260e01b166028850152602c840152604c830190611e83565b9290916001600160a01b039081604051947f23b872dd000000000000000000000000000000000000000000000000000000005f52166004521660245260445260205f60648180865af160015f5114811615613262575b6040919091525f6060521561322e5750565b7f5274afe7000000000000000000000000000000000000000000000000000000005f526001600160a01b031660045260245ffd5b6001811516613278573d15833b1515161661321c565b503d5f823e3d90fdfea164736f6c6343000823000a",
  "linkReferences": {},
  "deployedLinkReferences": {},
  "immutableReferences": {
    "60": [
      {
        "length": 32,
        "start": 2335
      },
      {
        "length": 32,
        "start": 3381
      },
      {
        "length": 32,
        "start": 4195
      },
      {
        "length": 32,
        "start": 6884
      },
      {
        "length": 32,
        "start": 9003
      },
      {
        "length": 32,
        "start": 10995
      },
      {
        "length": 32,
        "start": 12157
      }
    ],
    "988": [
      {
        "length": 32,
        "start": 3172
      },
      {
        "length": 32,
        "start": 4897
      },
      {
        "length": 32,
        "start": 8606
      },
      {
        "length": 32,
        "start": 9600
      },
      {
        "length": 32,
        "start": 12430
      }
    ]
  },
  "inputSourceName": "project/contracts/contracts/oft/TestOFT.sol",
  "buildInfoId": "solc-0_8_35-30b66f51ed4aa5ee3ed5610b0a1c656816791f1a"
}